{
	"contracts/WinnerList_Airdrop.sol": {
		"AirdropContract": {
			"abi": [
				{
					"inputs": [
						{
							"internalType": "contract IERC20",
							"name": "_token",
							"type": "address"
						}
					],
					"stateMutability": "nonpayable",
					"type": "constructor"
				},
				{
					"inputs": [
						{
							"internalType": "address",
							"name": "owner",
							"type": "address"
						}
					],
					"name": "OwnableInvalidOwner",
					"type": "error"
				},
				{
					"inputs": [
						{
							"internalType": "address",
							"name": "account",
							"type": "address"
						}
					],
					"name": "OwnableUnauthorizedAccount",
					"type": "error"
				},
				{
					"inputs": [
						{
							"internalType": "address",
							"name": "token",
							"type": "address"
						}
					],
					"name": "SafeERC20FailedOperation",
					"type": "error"
				},
				{
					"anonymous": false,
					"inputs": [
						{
							"indexed": true,
							"internalType": "address",
							"name": "previousOwner",
							"type": "address"
						},
						{
							"indexed": true,
							"internalType": "address",
							"name": "newOwner",
							"type": "address"
						}
					],
					"name": "OwnershipTransferred",
					"type": "event"
				},
				{
					"inputs": [
						{
							"internalType": "address[]",
							"name": "recipients",
							"type": "address[]"
						},
						{
							"internalType": "uint256[]",
							"name": "amounts",
							"type": "uint256[]"
						}
					],
					"name": "airdrop",
					"outputs": [],
					"stateMutability": "nonpayable",
					"type": "function"
				},
				{
					"inputs": [],
					"name": "owner",
					"outputs": [
						{
							"internalType": "address",
							"name": "",
							"type": "address"
						}
					],
					"stateMutability": "view",
					"type": "function"
				},
				{
					"inputs": [],
					"name": "renounceOwnership",
					"outputs": [],
					"stateMutability": "nonpayable",
					"type": "function"
				},
				{
					"inputs": [
						{
							"internalType": "contract IERC20",
							"name": "_token",
							"type": "address"
						}
					],
					"name": "setToken",
					"outputs": [],
					"stateMutability": "nonpayable",
					"type": "function"
				},
				{
					"inputs": [],
					"name": "token",
					"outputs": [
						{
							"internalType": "contract IERC20",
							"name": "",
							"type": "address"
						}
					],
					"stateMutability": "view",
					"type": "function"
				},
				{
					"inputs": [
						{
							"internalType": "address",
							"name": "newOwner",
							"type": "address"
						}
					],
					"name": "transferOwnership",
					"outputs": [],
					"stateMutability": "nonpayable",
					"type": "function"
				}
			],
			"devdoc": {
				"details": "Bu kontrat, belirli adreslere ERC20 token airdrop'u yapılmasını sağlar.",
				"errors": {
					"OwnableInvalidOwner(address)": [
						{
							"details": "The owner is not a valid owner account. (eg. `address(0)`)"
						}
					],
					"OwnableUnauthorizedAccount(address)": [
						{
							"details": "The caller account is not authorized to perform an operation."
						}
					],
					"SafeERC20FailedOperation(address)": [
						{
							"details": "An operation with an ERC-20 token failed."
						}
					]
				},
				"kind": "dev",
				"methods": {
					"airdrop(address[],uint256[])": {
						"details": "Sadece admin bu işlemi gerçekleştirebilir.",
						"params": {
							"amounts": "Her bir adres için airdrop miktarlarının listesi",
							"recipients": "Airdrop yapılacak adreslerin listesi"
						}
					},
					"constructor": {
						"details": "Kontratı başlatır ve airdrop yapılacak token adresini belirler.",
						"params": {
							"_token": "Airdrop yapılacak token adresi"
						}
					},
					"owner()": {
						"details": "Returns the address of the current owner."
					},
					"renounceOwnership()": {
						"details": "Leaves the contract without owner. It will not be possible to call `onlyOwner` functions. Can only be called by the current owner. NOTE: Renouncing ownership will leave the contract without an owner, thereby disabling any functionality that is only available to the owner."
					},
					"setToken(address)": {
						"details": "Sadece admin bu işlemi gerçekleştirebilir.",
						"params": {
							"_token": "Yeni token adresi"
						}
					},
					"transferOwnership(address)": {
						"details": "Transfers ownership of the contract to a new account (`newOwner`). Can only be called by the current owner."
					}
				},
				"title": "AirdropContract",
				"version": 1
			},
			"evm": {
				"assembly": "    /* \"contracts/WinnerList_Airdrop.sol\":512:1974  contract AirdropContract is Ownable {... */\n  mstore(0x40, 0x80)\n    /* \"contracts/WinnerList_Airdrop.sol\":810:969  constructor(IERC20 _token) Ownable(msg.sender) {... */\n  callvalue\n  dup1\n  iszero\n  tag_1\n  jumpi\n  0x00\n  dup1\n  revert\ntag_1:\n  pop\n  mload(0x40)\n  sub(codesize, bytecodeSize)\n  dup1\n  bytecodeSize\n  dup4\n  codecopy\n  dup2\n  dup2\n  add\n  0x40\n  mstore\n  dup2\n  add\n  swap1\n  tag_2\n  swap2\n  swap1\n  tag_3\n  jump\t// in\ntag_2:\n    /* \"contracts/WinnerList_Airdrop.sol\":845:855  msg.sender */\n  caller\n    /* \"https://github.com/OpenZeppelin/openzeppelin-contracts/blob/master/contracts/access/Ownable.sol\":1297:1298  0 */\n  0x00\n    /* \"https://github.com/OpenZeppelin/openzeppelin-contracts/blob/master/contracts/access/Ownable.sol\":1273:1299  initialOwner == address(0) */\n  0xffffffffffffffffffffffffffffffffffffffff\n  and\n    /* \"https://github.com/OpenZeppelin/openzeppelin-contracts/blob/master/contracts/access/Ownable.sol\":1273:1285  initialOwner */\n  dup2\n    /* \"https://github.com/OpenZeppelin/openzeppelin-contracts/blob/master/contracts/access/Ownable.sol\":1273:1299  initialOwner == address(0) */\n  0xffffffffffffffffffffffffffffffffffffffff\n  and\n  sub\n    /* \"https://github.com/OpenZeppelin/openzeppelin-contracts/blob/master/contracts/access/Ownable.sol\":1269:1364  if (initialOwner == address(0)) {... */\n  tag_7\n  jumpi\n    /* \"https://github.com/OpenZeppelin/openzeppelin-contracts/blob/master/contracts/access/Ownable.sol\":1350:1351  0 */\n  0x00\n    /* \"https://github.com/OpenZeppelin/openzeppelin-contracts/blob/master/contracts/access/Ownable.sol\":1322:1353  OwnableInvalidOwner(address(0)) */\n  mload(0x40)\n  0x1e4fbdf700000000000000000000000000000000000000000000000000000000\n  dup2\n  mstore\n  0x04\n  add\n  tag_8\n  swap2\n  swap1\n  tag_9\n  jump\t// in\ntag_8:\n  mload(0x40)\n  dup1\n  swap2\n  sub\n  swap1\n  revert\n    /* \"https://github.com/OpenZeppelin/openzeppelin-contracts/blob/master/contracts/access/Ownable.sol\":1269:1364  if (initialOwner == address(0)) {... */\ntag_7:\n    /* \"https://github.com/OpenZeppelin/openzeppelin-contracts/blob/master/contracts/access/Ownable.sol\":1373:1405  _transferOwnership(initialOwner) */\n  tag_10\n    /* \"https://github.com/OpenZeppelin/openzeppelin-contracts/blob/master/contracts/access/Ownable.sol\":1392:1404  initialOwner */\n  dup2\n    /* \"https://github.com/OpenZeppelin/openzeppelin-contracts/blob/master/contracts/access/Ownable.sol\":1373:1391  _transferOwnership */\n  shl(0x20, tag_11)\n    /* \"https://github.com/OpenZeppelin/openzeppelin-contracts/blob/master/contracts/access/Ownable.sol\":1373:1405  _transferOwnership(initialOwner) */\n  0x20\n  shr\n  jump\t// in\ntag_10:\n    /* \"https://github.com/OpenZeppelin/openzeppelin-contracts/blob/master/contracts/access/Ownable.sol\":1225:1412  constructor(address initialOwner) {... */\n  pop\n    /* \"contracts/WinnerList_Airdrop.sol\":902:903  0 */\n  0x00\n    /* \"contracts/WinnerList_Airdrop.sol\":875:904  address(_token) != address(0) */\n  0xffffffffffffffffffffffffffffffffffffffff\n  and\n    /* \"contracts/WinnerList_Airdrop.sol\":883:889  _token */\n  dup2\n    /* \"contracts/WinnerList_Airdrop.sol\":875:904  address(_token) != address(0) */\n  0xffffffffffffffffffffffffffffffffffffffff\n  and\n  sub\n    /* \"contracts/WinnerList_Airdrop.sol\":867:938  require(address(_token) != address(0), \"Token address cannot be zero.\") */\n  tag_13\n  jumpi\n  mload(0x40)\n  0x08c379a000000000000000000000000000000000000000000000000000000000\n  dup2\n  mstore\n  0x04\n  add\n  tag_14\n  swap1\n  tag_15\n  jump\t// in\ntag_14:\n  mload(0x40)\n  dup1\n  swap2\n  sub\n  swap1\n  revert\ntag_13:\n    /* \"contracts/WinnerList_Airdrop.sol\":956:962  _token */\n  dup1\n    /* \"contracts/WinnerList_Airdrop.sol\":948:953  token */\n  0x01\n  0x00\n    /* \"contracts/WinnerList_Airdrop.sol\":948:962  token = _token */\n  0x0100\n  exp\n  dup2\n  sload\n  dup2\n  0xffffffffffffffffffffffffffffffffffffffff\n  mul\n  not\n  and\n  swap1\n  dup4\n  0xffffffffffffffffffffffffffffffffffffffff\n  and\n  mul\n  or\n  swap1\n  sstore\n  pop\n    /* \"contracts/WinnerList_Airdrop.sol\":810:969  constructor(IERC20 _token) Ownable(msg.sender) {... */\n  pop\n    /* \"contracts/WinnerList_Airdrop.sol\":512:1974  contract AirdropContract is Ownable {... */\n  jump(tag_16)\n    /* \"https://github.com/OpenZeppelin/openzeppelin-contracts/blob/master/contracts/access/Ownable.sol\":2912:3099  function _transferOwnership(address newOwner) internal virtual {... */\ntag_11:\n    /* \"https://github.com/OpenZeppelin/openzeppelin-contracts/blob/master/contracts/access/Ownable.sol\":2985:3001  address oldOwner */\n  0x00\n    /* \"https://github.com/OpenZeppelin/openzeppelin-contracts/blob/master/contracts/access/Ownable.sol\":3004:3010  _owner */\n  dup1\n  0x00\n  swap1\n  sload\n  swap1\n  0x0100\n  exp\n  swap1\n  div\n  0xffffffffffffffffffffffffffffffffffffffff\n  and\n    /* \"https://github.com/OpenZeppelin/openzeppelin-contracts/blob/master/contracts/access/Ownable.sol\":2985:3010  address oldOwner = _owner */\n  swap1\n  pop\n    /* \"https://github.com/OpenZeppelin/openzeppelin-contracts/blob/master/contracts/access/Ownable.sol\":3029:3037  newOwner */\n  dup2\n    /* \"https://github.com/OpenZeppelin/openzeppelin-contracts/blob/master/contracts/access/Ownable.sol\":3020:3026  _owner */\n  0x00\n  dup1\n    /* \"https://github.com/OpenZeppelin/openzeppelin-contracts/blob/master/contracts/access/Ownable.sol\":3020:3037  _owner = newOwner */\n  0x0100\n  exp\n  dup2\n  sload\n  dup2\n  0xffffffffffffffffffffffffffffffffffffffff\n  mul\n  not\n  and\n  swap1\n  dup4\n  0xffffffffffffffffffffffffffffffffffffffff\n  and\n  mul\n  or\n  swap1\n  sstore\n  pop\n    /* \"https://github.com/OpenZeppelin/openzeppelin-contracts/blob/master/contracts/access/Ownable.sol\":3083:3091  newOwner */\n  dup2\n    /* \"https://github.com/OpenZeppelin/openzeppelin-contracts/blob/master/contracts/access/Ownable.sol\":3052:3092  OwnershipTransferred(oldOwner, newOwner) */\n  0xffffffffffffffffffffffffffffffffffffffff\n  and\n    /* \"https://github.com/OpenZeppelin/openzeppelin-contracts/blob/master/contracts/access/Ownable.sol\":3073:3081  oldOwner */\n  dup2\n    /* \"https://github.com/OpenZeppelin/openzeppelin-contracts/blob/master/contracts/access/Ownable.sol\":3052:3092  OwnershipTransferred(oldOwner, newOwner) */\n  0xffffffffffffffffffffffffffffffffffffffff\n  and\n  0x8be0079c531659141344cd1fd0a4f28419497f9722a3daafe3b4186f6b6457e0\n  mload(0x40)\n  mload(0x40)\n  dup1\n  swap2\n  sub\n  swap1\n  log3\n    /* \"https://github.com/OpenZeppelin/openzeppelin-contracts/blob/master/contracts/access/Ownable.sol\":2975:3099  {... */\n  pop\n    /* \"https://github.com/OpenZeppelin/openzeppelin-contracts/blob/master/contracts/access/Ownable.sol\":2912:3099  function _transferOwnership(address newOwner) internal virtual {... */\n  pop\n  jump\t// out\n    /* \"#utility.yul\":88:205   */\ntag_19:\n    /* \"#utility.yul\":197:198   */\n  0x00\n    /* \"#utility.yul\":194:195   */\n  dup1\n    /* \"#utility.yul\":187:199   */\n  revert\n    /* \"#utility.yul\":334:460   */\ntag_21:\n    /* \"#utility.yul\":371:378   */\n  0x00\n    /* \"#utility.yul\":411:453   */\n  0xffffffffffffffffffffffffffffffffffffffff\n    /* \"#utility.yul\":404:409   */\n  dup3\n    /* \"#utility.yul\":400:454   */\n  and\n    /* \"#utility.yul\":389:454   */\n  swap1\n  pop\n    /* \"#utility.yul\":334:460   */\n  swap2\n  swap1\n  pop\n  jump\t// out\n    /* \"#utility.yul\":466:562   */\ntag_22:\n    /* \"#utility.yul\":503:510   */\n  0x00\n    /* \"#utility.yul\":532:556   */\n  tag_36\n    /* \"#utility.yul\":550:555   */\n  dup3\n    /* \"#utility.yul\":532:556   */\n  tag_21\n  jump\t// in\ntag_36:\n    /* \"#utility.yul\":521:556   */\n  swap1\n  pop\n    /* \"#utility.yul\":466:562   */\n  swap2\n  swap1\n  pop\n  jump\t// out\n    /* \"#utility.yul\":568:678   */\ntag_23:\n    /* \"#utility.yul\":619:626   */\n  0x00\n    /* \"#utility.yul\":648:672   */\n  tag_38\n    /* \"#utility.yul\":666:671   */\n  dup3\n    /* \"#utility.yul\":648:672   */\n  tag_22\n  jump\t// in\ntag_38:\n    /* \"#utility.yul\":637:672   */\n  swap1\n  pop\n    /* \"#utility.yul\":568:678   */\n  swap2\n  swap1\n  pop\n  jump\t// out\n    /* \"#utility.yul\":684:834   */\ntag_24:\n    /* \"#utility.yul\":771:809   */\n  tag_40\n    /* \"#utility.yul\":803:808   */\n  dup2\n    /* \"#utility.yul\":771:809   */\n  tag_23\n  jump\t// in\ntag_40:\n    /* \"#utility.yul\":764:769   */\n  dup2\n    /* \"#utility.yul\":761:810   */\n  eq\n    /* \"#utility.yul\":751:828   */\n  tag_41\n  jumpi\n    /* \"#utility.yul\":824:825   */\n  0x00\n    /* \"#utility.yul\":821:822   */\n  dup1\n    /* \"#utility.yul\":814:826   */\n  revert\n    /* \"#utility.yul\":751:828   */\ntag_41:\n    /* \"#utility.yul\":684:834   */\n  pop\n  jump\t// out\n    /* \"#utility.yul\":840:1011   */\ntag_25:\n    /* \"#utility.yul\":911:916   */\n  0x00\n    /* \"#utility.yul\":942:948   */\n  dup2\n    /* \"#utility.yul\":936:949   */\n  mload\n    /* \"#utility.yul\":927:949   */\n  swap1\n  pop\n    /* \"#utility.yul\":958:1005   */\n  tag_43\n    /* \"#utility.yul\":999:1004   */\n  dup2\n    /* \"#utility.yul\":958:1005   */\n  tag_24\n  jump\t// in\ntag_43:\n    /* \"#utility.yul\":840:1011   */\n  swap3\n  swap2\n  pop\n  pop\n  jump\t// out\n    /* \"#utility.yul\":1017:1396   */\ntag_3:\n    /* \"#utility.yul\":1101:1107   */\n  0x00\n    /* \"#utility.yul\":1150:1152   */\n  0x20\n    /* \"#utility.yul\":1138:1147   */\n  dup3\n    /* \"#utility.yul\":1129:1136   */\n  dup5\n    /* \"#utility.yul\":1125:1148   */\n  sub\n    /* \"#utility.yul\":1121:1153   */\n  slt\n    /* \"#utility.yul\":1118:1237   */\n  iszero\n  tag_45\n  jumpi\n    /* \"#utility.yul\":1156:1235   */\n  tag_46\n  tag_19\n  jump\t// in\ntag_46:\n    /* \"#utility.yul\":1118:1237   */\ntag_45:\n    /* \"#utility.yul\":1276:1277   */\n  0x00\n    /* \"#utility.yul\":1301:1379   */\n  tag_47\n    /* \"#utility.yul\":1371:1378   */\n  dup5\n    /* \"#utility.yul\":1362:1368   */\n  dup3\n    /* \"#utility.yul\":1351:1360   */\n  dup6\n    /* \"#utility.yul\":1347:1369   */\n  add\n    /* \"#utility.yul\":1301:1379   */\n  tag_25\n  jump\t// in\ntag_47:\n    /* \"#utility.yul\":1291:1379   */\n  swap2\n  pop\n    /* \"#utility.yul\":1247:1389   */\n  pop\n    /* \"#utility.yul\":1017:1396   */\n  swap3\n  swap2\n  pop\n  pop\n  jump\t// out\n    /* \"#utility.yul\":1402:1520   */\ntag_26:\n    /* \"#utility.yul\":1489:1513   */\n  tag_49\n    /* \"#utility.yul\":1507:1512   */\n  dup2\n    /* \"#utility.yul\":1489:1513   */\n  tag_22\n  jump\t// in\ntag_49:\n    /* \"#utility.yul\":1484:1487   */\n  dup3\n    /* \"#utility.yul\":1477:1514   */\n  mstore\n    /* \"#utility.yul\":1402:1520   */\n  pop\n  pop\n  jump\t// out\n    /* \"#utility.yul\":1526:1748   */\ntag_9:\n    /* \"#utility.yul\":1619:1623   */\n  0x00\n    /* \"#utility.yul\":1657:1659   */\n  0x20\n    /* \"#utility.yul\":1646:1655   */\n  dup3\n    /* \"#utility.yul\":1642:1660   */\n  add\n    /* \"#utility.yul\":1634:1660   */\n  swap1\n  pop\n    /* \"#utility.yul\":1670:1741   */\n  tag_51\n    /* \"#utility.yul\":1738:1739   */\n  0x00\n    /* \"#utility.yul\":1727:1736   */\n  dup4\n    /* \"#utility.yul\":1723:1740   */\n  add\n    /* \"#utility.yul\":1714:1720   */\n  dup5\n    /* \"#utility.yul\":1670:1741   */\n  tag_26\n  jump\t// in\ntag_51:\n    /* \"#utility.yul\":1526:1748   */\n  swap3\n  swap2\n  pop\n  pop\n  jump\t// out\n    /* \"#utility.yul\":1754:1923   */\ntag_27:\n    /* \"#utility.yul\":1838:1849   */\n  0x00\n    /* \"#utility.yul\":1872:1878   */\n  dup3\n    /* \"#utility.yul\":1867:1870   */\n  dup3\n    /* \"#utility.yul\":1860:1879   */\n  mstore\n    /* \"#utility.yul\":1912:1916   */\n  0x20\n    /* \"#utility.yul\":1907:1910   */\n  dup3\n    /* \"#utility.yul\":1903:1917   */\n  add\n    /* \"#utility.yul\":1888:1917   */\n  swap1\n  pop\n    /* \"#utility.yul\":1754:1923   */\n  swap3\n  swap2\n  pop\n  pop\n  jump\t// out\n    /* \"#utility.yul\":1929:2108   */\ntag_28:\n    /* \"#utility.yul\":2069:2100   */\n  0x546f6b656e20616464726573732063616e6e6f74206265207a65726f2e000000\n    /* \"#utility.yul\":2065:2066   */\n  0x00\n    /* \"#utility.yul\":2057:2063   */\n  dup3\n    /* \"#utility.yul\":2053:2067   */\n  add\n    /* \"#utility.yul\":2046:2101   */\n  mstore\n    /* \"#utility.yul\":1929:2108   */\n  pop\n  jump\t// out\n    /* \"#utility.yul\":2114:2480   */\ntag_29:\n    /* \"#utility.yul\":2256:2259   */\n  0x00\n    /* \"#utility.yul\":2277:2344   */\n  tag_55\n    /* \"#utility.yul\":2341:2343   */\n  0x1d\n    /* \"#utility.yul\":2336:2339   */\n  dup4\n    /* \"#utility.yul\":2277:2344   */\n  tag_27\n  jump\t// in\ntag_55:\n    /* \"#utility.yul\":2270:2344   */\n  swap2\n  pop\n    /* \"#utility.yul\":2353:2446   */\n  tag_56\n    /* \"#utility.yul\":2442:2445   */\n  dup3\n    /* \"#utility.yul\":2353:2446   */\n  tag_28\n  jump\t// in\ntag_56:\n    /* \"#utility.yul\":2471:2473   */\n  0x20\n    /* \"#utility.yul\":2466:2469   */\n  dup3\n    /* \"#utility.yul\":2462:2474   */\n  add\n    /* \"#utility.yul\":2455:2474   */\n  swap1\n  pop\n    /* \"#utility.yul\":2114:2480   */\n  swap2\n  swap1\n  pop\n  jump\t// out\n    /* \"#utility.yul\":2486:2905   */\ntag_15:\n    /* \"#utility.yul\":2652:2656   */\n  0x00\n    /* \"#utility.yul\":2690:2692   */\n  0x20\n    /* \"#utility.yul\":2679:2688   */\n  dup3\n    /* \"#utility.yul\":2675:2693   */\n  add\n    /* \"#utility.yul\":2667:2693   */\n  swap1\n  pop\n    /* \"#utility.yul\":2739:2748   */\n  dup2\n    /* \"#utility.yul\":2733:2737   */\n  dup2\n    /* \"#utility.yul\":2729:2749   */\n  sub\n    /* \"#utility.yul\":2725:2726   */\n  0x00\n    /* \"#utility.yul\":2714:2723   */\n  dup4\n    /* \"#utility.yul\":2710:2727   */\n  add\n    /* \"#utility.yul\":2703:2750   */\n  mstore\n    /* \"#utility.yul\":2767:2898   */\n  tag_58\n    /* \"#utility.yul\":2893:2897   */\n  dup2\n    /* \"#utility.yul\":2767:2898   */\n  tag_29\n  jump\t// in\ntag_58:\n    /* \"#utility.yul\":2759:2898   */\n  swap1\n  pop\n    /* \"#utility.yul\":2486:2905   */\n  swap2\n  swap1\n  pop\n  jump\t// out\n    /* \"contracts/WinnerList_Airdrop.sol\":512:1974  contract AirdropContract is Ownable {... */\ntag_16:\n  dataSize(sub_0)\n  dup1\n  dataOffset(sub_0)\n  0x00\n  codecopy\n  0x00\n  return\nstop\n\nsub_0: assembly {\n        /* \"contracts/WinnerList_Airdrop.sol\":512:1974  contract AirdropContract is Ownable {... */\n      mstore(0x40, 0x80)\n      callvalue\n      dup1\n      iszero\n      tag_1\n      jumpi\n      0x00\n      dup1\n      revert\n    tag_1:\n      pop\n      jumpi(tag_2, lt(calldatasize, 0x04))\n      shr(0xe0, calldataload(0x00))\n      dup1\n      0x144fa6d7\n      eq\n      tag_3\n      jumpi\n      dup1\n      0x67243482\n      eq\n      tag_4\n      jumpi\n      dup1\n      0x715018a6\n      eq\n      tag_5\n      jumpi\n      dup1\n      0x8da5cb5b\n      eq\n      tag_6\n      jumpi\n      dup1\n      0xf2fde38b\n      eq\n      tag_7\n      jumpi\n      dup1\n      0xfc0c546a\n      eq\n      tag_8\n      jumpi\n    tag_2:\n      0x00\n      dup1\n      revert\n        /* \"contracts/WinnerList_Airdrop.sol\":1808:1972  function setToken(IERC20 _token) external onlyOwner {... */\n    tag_3:\n      tag_9\n      0x04\n      dup1\n      calldatasize\n      sub\n      dup2\n      add\n      swap1\n      tag_10\n      swap2\n      swap1\n      tag_11\n      jump\t// in\n    tag_10:\n      tag_12\n      jump\t// in\n    tag_9:\n      stop\n        /* \"contracts/WinnerList_Airdrop.sol\":1255:1647  function airdrop(address[] calldata recipients, uint256[] calldata amounts) external onlyOwner {... */\n    tag_4:\n      tag_13\n      0x04\n      dup1\n      calldatasize\n      sub\n      dup2\n      add\n      swap1\n      tag_14\n      swap2\n      swap1\n      tag_15\n      jump\t// in\n    tag_14:\n      tag_16\n      jump\t// in\n    tag_13:\n      stop\n        /* \"https://github.com/OpenZeppelin/openzeppelin-contracts/blob/master/contracts/access/Ownable.sol\":2293:2394  function renounceOwnership() public virtual onlyOwner {... */\n    tag_5:\n      tag_17\n      tag_18\n      jump\t// in\n    tag_17:\n      stop\n        /* \"https://github.com/OpenZeppelin/openzeppelin-contracts/blob/master/contracts/access/Ownable.sol\":1638:1723  function owner() public view virtual returns (address) {... */\n    tag_6:\n      tag_19\n      tag_20\n      jump\t// in\n    tag_19:\n      mload(0x40)\n      tag_21\n      swap2\n      swap1\n      tag_22\n      jump\t// in\n    tag_21:\n      mload(0x40)\n      dup1\n      swap2\n      sub\n      swap1\n      return\n        /* \"https://github.com/OpenZeppelin/openzeppelin-contracts/blob/master/contracts/access/Ownable.sol\":2543:2758  function transferOwnership(address newOwner) public virtual onlyOwner {... */\n    tag_7:\n      tag_23\n      0x04\n      dup1\n      calldatasize\n      sub\n      dup2\n      add\n      swap1\n      tag_24\n      swap2\n      swap1\n      tag_25\n      jump\t// in\n    tag_24:\n      tag_26\n      jump\t// in\n    tag_23:\n      stop\n        /* \"contracts/WinnerList_Airdrop.sol\":635:654  IERC20 public token */\n    tag_8:\n      tag_27\n      tag_28\n      jump\t// in\n    tag_27:\n      mload(0x40)\n      tag_29\n      swap2\n      swap1\n      tag_30\n      jump\t// in\n    tag_29:\n      mload(0x40)\n      dup1\n      swap2\n      sub\n      swap1\n      return\n        /* \"contracts/WinnerList_Airdrop.sol\":1808:1972  function setToken(IERC20 _token) external onlyOwner {... */\n    tag_12:\n        /* \"https://github.com/OpenZeppelin/openzeppelin-contracts/blob/master/contracts/access/Ownable.sol\":1531:1544  _checkOwner() */\n      tag_32\n        /* \"https://github.com/OpenZeppelin/openzeppelin-contracts/blob/master/contracts/access/Ownable.sol\":1531:1542  _checkOwner */\n      tag_33\n        /* \"https://github.com/OpenZeppelin/openzeppelin-contracts/blob/master/contracts/access/Ownable.sol\":1531:1544  _checkOwner() */\n      jump\t// in\n    tag_32:\n        /* \"contracts/WinnerList_Airdrop.sol\":1905:1906  0 */\n      0x00\n        /* \"contracts/WinnerList_Airdrop.sol\":1878:1907  address(_token) != address(0) */\n      0xffffffffffffffffffffffffffffffffffffffff\n      and\n        /* \"contracts/WinnerList_Airdrop.sol\":1886:1892  _token */\n      dup2\n        /* \"contracts/WinnerList_Airdrop.sol\":1878:1907  address(_token) != address(0) */\n      0xffffffffffffffffffffffffffffffffffffffff\n      and\n      sub\n        /* \"contracts/WinnerList_Airdrop.sol\":1870:1941  require(address(_token) != address(0), \"Token address cannot be zero.\") */\n      tag_35\n      jumpi\n      mload(0x40)\n      0x08c379a000000000000000000000000000000000000000000000000000000000\n      dup2\n      mstore\n      0x04\n      add\n      tag_36\n      swap1\n      tag_37\n      jump\t// in\n    tag_36:\n      mload(0x40)\n      dup1\n      swap2\n      sub\n      swap1\n      revert\n    tag_35:\n        /* \"contracts/WinnerList_Airdrop.sol\":1959:1965  _token */\n      dup1\n        /* \"contracts/WinnerList_Airdrop.sol\":1951:1956  token */\n      0x01\n      0x00\n        /* \"contracts/WinnerList_Airdrop.sol\":1951:1965  token = _token */\n      0x0100\n      exp\n      dup2\n      sload\n      dup2\n      0xffffffffffffffffffffffffffffffffffffffff\n      mul\n      not\n      and\n      swap1\n      dup4\n      0xffffffffffffffffffffffffffffffffffffffff\n      and\n      mul\n      or\n      swap1\n      sstore\n      pop\n        /* \"contracts/WinnerList_Airdrop.sol\":1808:1972  function setToken(IERC20 _token) external onlyOwner {... */\n      pop\n      jump\t// out\n        /* \"contracts/WinnerList_Airdrop.sol\":1255:1647  function airdrop(address[] calldata recipients, uint256[] calldata amounts) external onlyOwner {... */\n    tag_16:\n        /* \"https://github.com/OpenZeppelin/openzeppelin-contracts/blob/master/contracts/access/Ownable.sol\":1531:1544  _checkOwner() */\n      tag_39\n        /* \"https://github.com/OpenZeppelin/openzeppelin-contracts/blob/master/contracts/access/Ownable.sol\":1531:1542  _checkOwner */\n      tag_33\n        /* \"https://github.com/OpenZeppelin/openzeppelin-contracts/blob/master/contracts/access/Ownable.sol\":1531:1544  _checkOwner() */\n      jump\t// in\n    tag_39:\n        /* \"contracts/WinnerList_Airdrop.sol\":1389:1396  amounts */\n      dup2\n      dup2\n        /* \"contracts/WinnerList_Airdrop.sol\":1389:1403  amounts.length */\n      swap1\n      pop\n        /* \"contracts/WinnerList_Airdrop.sol\":1368:1378  recipients */\n      dup5\n      dup5\n        /* \"contracts/WinnerList_Airdrop.sol\":1368:1385  recipients.length */\n      swap1\n      pop\n        /* \"contracts/WinnerList_Airdrop.sol\":1368:1403  recipients.length == amounts.length */\n      eq\n        /* \"contracts/WinnerList_Airdrop.sol\":1360:1447  require(recipients.length == amounts.length, \"Recipients and amounts length mismatch.\") */\n      tag_41\n      jumpi\n      mload(0x40)\n      0x08c379a000000000000000000000000000000000000000000000000000000000\n      dup2\n      mstore\n      0x04\n      add\n      tag_42\n      swap1\n      tag_43\n      jump\t// in\n    tag_42:\n      mload(0x40)\n      dup1\n      swap2\n      sub\n      swap1\n      revert\n    tag_41:\n        /* \"contracts/WinnerList_Airdrop.sol\":1528:1537  uint256 i */\n      0x00\n        /* \"contracts/WinnerList_Airdrop.sol\":1523:1641  for (uint256 i = 0; i < recipients.length; i++) {... */\n    tag_44:\n        /* \"contracts/WinnerList_Airdrop.sol\":1547:1557  recipients */\n      dup5\n      dup5\n        /* \"contracts/WinnerList_Airdrop.sol\":1547:1564  recipients.length */\n      swap1\n      pop\n        /* \"contracts/WinnerList_Airdrop.sol\":1543:1544  i */\n      dup2\n        /* \"contracts/WinnerList_Airdrop.sol\":1543:1564  i < recipients.length */\n      lt\n        /* \"contracts/WinnerList_Airdrop.sol\":1523:1641  for (uint256 i = 0; i < recipients.length; i++) {... */\n      iszero\n      tag_45\n      jumpi\n        /* \"contracts/WinnerList_Airdrop.sol\":1585:1630  token.safeTransfer(recipients[i], amounts[i]) */\n      tag_47\n        /* \"contracts/WinnerList_Airdrop.sol\":1604:1614  recipients */\n      dup6\n      dup6\n        /* \"contracts/WinnerList_Airdrop.sol\":1615:1616  i */\n      dup4\n        /* \"contracts/WinnerList_Airdrop.sol\":1604:1617  recipients[i] */\n      dup2\n      dup2\n      lt\n      tag_48\n      jumpi\n      tag_49\n      tag_50\n      jump\t// in\n    tag_49:\n    tag_48:\n      swap1\n      pop\n      0x20\n      mul\n      add\n      0x20\n      dup2\n      add\n      swap1\n      tag_51\n      swap2\n      swap1\n      tag_25\n      jump\t// in\n    tag_51:\n        /* \"contracts/WinnerList_Airdrop.sol\":1619:1626  amounts */\n      dup5\n      dup5\n        /* \"contracts/WinnerList_Airdrop.sol\":1627:1628  i */\n      dup5\n        /* \"contracts/WinnerList_Airdrop.sol\":1619:1629  amounts[i] */\n      dup2\n      dup2\n      lt\n      tag_52\n      jumpi\n      tag_53\n      tag_50\n      jump\t// in\n    tag_53:\n    tag_52:\n      swap1\n      pop\n      0x20\n      mul\n      add\n      calldataload\n        /* \"contracts/WinnerList_Airdrop.sol\":1585:1590  token */\n      0x01\n      0x00\n      swap1\n      sload\n      swap1\n      0x0100\n      exp\n      swap1\n      div\n      0xffffffffffffffffffffffffffffffffffffffff\n      and\n        /* \"contracts/WinnerList_Airdrop.sol\":1585:1603  token.safeTransfer */\n      0xffffffffffffffffffffffffffffffffffffffff\n      and\n      tag_54\n      swap1\n        /* \"contracts/WinnerList_Airdrop.sol\":1585:1630  token.safeTransfer(recipients[i], amounts[i]) */\n      swap3\n      swap2\n      swap1\n      0xffffffff\n      and\n      jump\t// in\n    tag_47:\n        /* \"contracts/WinnerList_Airdrop.sol\":1566:1569  i++ */\n      dup1\n      dup1\n      0x01\n      add\n      swap2\n      pop\n      pop\n        /* \"contracts/WinnerList_Airdrop.sol\":1523:1641  for (uint256 i = 0; i < recipients.length; i++) {... */\n      jump(tag_44)\n    tag_45:\n      pop\n        /* \"contracts/WinnerList_Airdrop.sol\":1255:1647  function airdrop(address[] calldata recipients, uint256[] calldata amounts) external onlyOwner {... */\n      pop\n      pop\n      pop\n      pop\n      jump\t// out\n        /* \"https://github.com/OpenZeppelin/openzeppelin-contracts/blob/master/contracts/access/Ownable.sol\":2293:2394  function renounceOwnership() public virtual onlyOwner {... */\n    tag_18:\n        /* \"https://github.com/OpenZeppelin/openzeppelin-contracts/blob/master/contracts/access/Ownable.sol\":1531:1544  _checkOwner() */\n      tag_56\n        /* \"https://github.com/OpenZeppelin/openzeppelin-contracts/blob/master/contracts/access/Ownable.sol\":1531:1542  _checkOwner */\n      tag_33\n        /* \"https://github.com/OpenZeppelin/openzeppelin-contracts/blob/master/contracts/access/Ownable.sol\":1531:1544  _checkOwner() */\n      jump\t// in\n    tag_56:\n        /* \"https://github.com/OpenZeppelin/openzeppelin-contracts/blob/master/contracts/access/Ownable.sol\":2357:2387  _transferOwnership(address(0)) */\n      tag_58\n        /* \"https://github.com/OpenZeppelin/openzeppelin-contracts/blob/master/contracts/access/Ownable.sol\":2384:2385  0 */\n      0x00\n        /* \"https://github.com/OpenZeppelin/openzeppelin-contracts/blob/master/contracts/access/Ownable.sol\":2357:2375  _transferOwnership */\n      tag_59\n        /* \"https://github.com/OpenZeppelin/openzeppelin-contracts/blob/master/contracts/access/Ownable.sol\":2357:2387  _transferOwnership(address(0)) */\n      jump\t// in\n    tag_58:\n        /* \"https://github.com/OpenZeppelin/openzeppelin-contracts/blob/master/contracts/access/Ownable.sol\":2293:2394  function renounceOwnership() public virtual onlyOwner {... */\n      jump\t// out\n        /* \"https://github.com/OpenZeppelin/openzeppelin-contracts/blob/master/contracts/access/Ownable.sol\":1638:1723  function owner() public view virtual returns (address) {... */\n    tag_20:\n        /* \"https://github.com/OpenZeppelin/openzeppelin-contracts/blob/master/contracts/access/Ownable.sol\":1684:1691  address */\n      0x00\n        /* \"https://github.com/OpenZeppelin/openzeppelin-contracts/blob/master/contracts/access/Ownable.sol\":1710:1716  _owner */\n      dup1\n      0x00\n      swap1\n      sload\n      swap1\n      0x0100\n      exp\n      swap1\n      div\n      0xffffffffffffffffffffffffffffffffffffffff\n      and\n        /* \"https://github.com/OpenZeppelin/openzeppelin-contracts/blob/master/contracts/access/Ownable.sol\":1703:1716  return _owner */\n      swap1\n      pop\n        /* \"https://github.com/OpenZeppelin/openzeppelin-contracts/blob/master/contracts/access/Ownable.sol\":1638:1723  function owner() public view virtual returns (address) {... */\n      swap1\n      jump\t// out\n        /* \"https://github.com/OpenZeppelin/openzeppelin-contracts/blob/master/contracts/access/Ownable.sol\":2543:2758  function transferOwnership(address newOwner) public virtual onlyOwner {... */\n    tag_26:\n        /* \"https://github.com/OpenZeppelin/openzeppelin-contracts/blob/master/contracts/access/Ownable.sol\":1531:1544  _checkOwner() */\n      tag_62\n        /* \"https://github.com/OpenZeppelin/openzeppelin-contracts/blob/master/contracts/access/Ownable.sol\":1531:1542  _checkOwner */\n      tag_33\n        /* \"https://github.com/OpenZeppelin/openzeppelin-contracts/blob/master/contracts/access/Ownable.sol\":1531:1544  _checkOwner() */\n      jump\t// in\n    tag_62:\n        /* \"https://github.com/OpenZeppelin/openzeppelin-contracts/blob/master/contracts/access/Ownable.sol\":2647:2648  0 */\n      0x00\n        /* \"https://github.com/OpenZeppelin/openzeppelin-contracts/blob/master/contracts/access/Ownable.sol\":2627:2649  newOwner == address(0) */\n      0xffffffffffffffffffffffffffffffffffffffff\n      and\n        /* \"https://github.com/OpenZeppelin/openzeppelin-contracts/blob/master/contracts/access/Ownable.sol\":2627:2635  newOwner */\n      dup2\n        /* \"https://github.com/OpenZeppelin/openzeppelin-contracts/blob/master/contracts/access/Ownable.sol\":2627:2649  newOwner == address(0) */\n      0xffffffffffffffffffffffffffffffffffffffff\n      and\n      sub\n        /* \"https://github.com/OpenZeppelin/openzeppelin-contracts/blob/master/contracts/access/Ownable.sol\":2623:2714  if (newOwner == address(0)) {... */\n      tag_64\n      jumpi\n        /* \"https://github.com/OpenZeppelin/openzeppelin-contracts/blob/master/contracts/access/Ownable.sol\":2700:2701  0 */\n      0x00\n        /* \"https://github.com/OpenZeppelin/openzeppelin-contracts/blob/master/contracts/access/Ownable.sol\":2672:2703  OwnableInvalidOwner(address(0)) */\n      mload(0x40)\n      0x1e4fbdf700000000000000000000000000000000000000000000000000000000\n      dup2\n      mstore\n      0x04\n      add\n      tag_65\n      swap2\n      swap1\n      tag_22\n      jump\t// in\n    tag_65:\n      mload(0x40)\n      dup1\n      swap2\n      sub\n      swap1\n      revert\n        /* \"https://github.com/OpenZeppelin/openzeppelin-contracts/blob/master/contracts/access/Ownable.sol\":2623:2714  if (newOwner == address(0)) {... */\n    tag_64:\n        /* \"https://github.com/OpenZeppelin/openzeppelin-contracts/blob/master/contracts/access/Ownable.sol\":2723:2751  _transferOwnership(newOwner) */\n      tag_66\n        /* \"https://github.com/OpenZeppelin/openzeppelin-contracts/blob/master/contracts/access/Ownable.sol\":2742:2750  newOwner */\n      dup2\n        /* \"https://github.com/OpenZeppelin/openzeppelin-contracts/blob/master/contracts/access/Ownable.sol\":2723:2741  _transferOwnership */\n      tag_59\n        /* \"https://github.com/OpenZeppelin/openzeppelin-contracts/blob/master/contracts/access/Ownable.sol\":2723:2751  _transferOwnership(newOwner) */\n      jump\t// in\n    tag_66:\n        /* \"https://github.com/OpenZeppelin/openzeppelin-contracts/blob/master/contracts/access/Ownable.sol\":2543:2758  function transferOwnership(address newOwner) public virtual onlyOwner {... */\n      pop\n      jump\t// out\n        /* \"contracts/WinnerList_Airdrop.sol\":635:654  IERC20 public token */\n    tag_28:\n      0x01\n      0x00\n      swap1\n      sload\n      swap1\n      0x0100\n      exp\n      swap1\n      div\n      0xffffffffffffffffffffffffffffffffffffffff\n      and\n      dup2\n      jump\t// out\n        /* \"https://github.com/OpenZeppelin/openzeppelin-contracts/blob/master/contracts/access/Ownable.sol\":1796:1958  function _checkOwner() internal view virtual {... */\n    tag_33:\n        /* \"https://github.com/OpenZeppelin/openzeppelin-contracts/blob/master/contracts/access/Ownable.sol\":1866:1878  _msgSender() */\n      tag_68\n        /* \"https://github.com/OpenZeppelin/openzeppelin-contracts/blob/master/contracts/access/Ownable.sol\":1866:1876  _msgSender */\n      tag_69\n        /* \"https://github.com/OpenZeppelin/openzeppelin-contracts/blob/master/contracts/access/Ownable.sol\":1866:1878  _msgSender() */\n      jump\t// in\n    tag_68:\n        /* \"https://github.com/OpenZeppelin/openzeppelin-contracts/blob/master/contracts/access/Ownable.sol\":1855:1878  owner() != _msgSender() */\n      0xffffffffffffffffffffffffffffffffffffffff\n      and\n        /* \"https://github.com/OpenZeppelin/openzeppelin-contracts/blob/master/contracts/access/Ownable.sol\":1855:1862  owner() */\n      tag_70\n        /* \"https://github.com/OpenZeppelin/openzeppelin-contracts/blob/master/contracts/access/Ownable.sol\":1855:1860  owner */\n      tag_20\n        /* \"https://github.com/OpenZeppelin/openzeppelin-contracts/blob/master/contracts/access/Ownable.sol\":1855:1862  owner() */\n      jump\t// in\n    tag_70:\n        /* \"https://github.com/OpenZeppelin/openzeppelin-contracts/blob/master/contracts/access/Ownable.sol\":1855:1878  owner() != _msgSender() */\n      0xffffffffffffffffffffffffffffffffffffffff\n      and\n      eq\n        /* \"https://github.com/OpenZeppelin/openzeppelin-contracts/blob/master/contracts/access/Ownable.sol\":1851:1952  if (owner() != _msgSender()) {... */\n      tag_71\n      jumpi\n        /* \"https://github.com/OpenZeppelin/openzeppelin-contracts/blob/master/contracts/access/Ownable.sol\":1928:1940  _msgSender() */\n      tag_72\n        /* \"https://github.com/OpenZeppelin/openzeppelin-contracts/blob/master/contracts/access/Ownable.sol\":1928:1938  _msgSender */\n      tag_69\n        /* \"https://github.com/OpenZeppelin/openzeppelin-contracts/blob/master/contracts/access/Ownable.sol\":1928:1940  _msgSender() */\n      jump\t// in\n    tag_72:\n        /* \"https://github.com/OpenZeppelin/openzeppelin-contracts/blob/master/contracts/access/Ownable.sol\":1901:1941  OwnableUnauthorizedAccount(_msgSender()) */\n      mload(0x40)\n      0x118cdaa700000000000000000000000000000000000000000000000000000000\n      dup2\n      mstore\n      0x04\n      add\n      tag_73\n      swap2\n      swap1\n      tag_22\n      jump\t// in\n    tag_73:\n      mload(0x40)\n      dup1\n      swap2\n      sub\n      swap1\n      revert\n        /* \"https://github.com/OpenZeppelin/openzeppelin-contracts/blob/master/contracts/access/Ownable.sol\":1851:1952  if (owner() != _msgSender()) {... */\n    tag_71:\n        /* \"https://github.com/OpenZeppelin/openzeppelin-contracts/blob/master/contracts/access/Ownable.sol\":1796:1958  function _checkOwner() internal view virtual {... */\n      jump\t// out\n        /* \"https://github.com/OpenZeppelin/openzeppelin-contracts/blob/master/contracts/token/ERC20/utils/SafeERC20.sol\":1271:1431  function safeTransfer(IERC20 token, address to, uint256 value) internal {... */\n    tag_54:\n        /* \"https://github.com/OpenZeppelin/openzeppelin-contracts/blob/master/contracts/token/ERC20/utils/SafeERC20.sol\":1353:1424  _callOptionalReturn(token, abi.encodeCall(token.transfer, (to, value))) */\n      tag_75\n        /* \"https://github.com/OpenZeppelin/openzeppelin-contracts/blob/master/contracts/token/ERC20/utils/SafeERC20.sol\":1373:1378  token */\n      dup4\n        /* \"https://github.com/OpenZeppelin/openzeppelin-contracts/blob/master/contracts/token/ERC20/utils/SafeERC20.sol\":1395:1400  token */\n      dup5\n        /* \"https://github.com/OpenZeppelin/openzeppelin-contracts/blob/master/contracts/token/ERC20/utils/SafeERC20.sol\":1395:1409  token.transfer */\n      0xffffffffffffffffffffffffffffffffffffffff\n      and\n      0xa9059cbb\n        /* \"https://github.com/OpenZeppelin/openzeppelin-contracts/blob/master/contracts/token/ERC20/utils/SafeERC20.sol\":1412:1414  to */\n      dup6\n        /* \"https://github.com/OpenZeppelin/openzeppelin-contracts/blob/master/contracts/token/ERC20/utils/SafeERC20.sol\":1416:1421  value */\n      dup6\n        /* \"https://github.com/OpenZeppelin/openzeppelin-contracts/blob/master/contracts/token/ERC20/utils/SafeERC20.sol\":1380:1423  abi.encodeCall(token.transfer, (to, value)) */\n      add(0x24, mload(0x40))\n      tag_76\n      swap3\n      swap2\n      swap1\n      tag_77\n      jump\t// in\n    tag_76:\n      mload(0x40)\n      0x20\n      dup2\n      dup4\n      sub\n      sub\n      dup2\n      mstore\n      swap1\n      0x40\n      mstore\n      swap2\n      pop\n      0xe0\n      shl\n      0x20\n      dup3\n      add\n      dup1\n      mload\n      0xffffffffffffffffffffffffffffffffffffffffffffffffffffffff\n      dup4\n      dup2\n      dup4\n      and\n      or\n      dup4\n      mstore\n      pop\n      pop\n      pop\n      pop\n        /* \"https://github.com/OpenZeppelin/openzeppelin-contracts/blob/master/contracts/token/ERC20/utils/SafeERC20.sol\":1353:1372  _callOptionalReturn */\n      tag_78\n        /* \"https://github.com/OpenZeppelin/openzeppelin-contracts/blob/master/contracts/token/ERC20/utils/SafeERC20.sol\":1353:1424  _callOptionalReturn(token, abi.encodeCall(token.transfer, (to, value))) */\n      jump\t// in\n    tag_75:\n        /* \"https://github.com/OpenZeppelin/openzeppelin-contracts/blob/master/contracts/token/ERC20/utils/SafeERC20.sol\":1271:1431  function safeTransfer(IERC20 token, address to, uint256 value) internal {... */\n      pop\n      pop\n      pop\n      jump\t// out\n        /* \"https://github.com/OpenZeppelin/openzeppelin-contracts/blob/master/contracts/access/Ownable.sol\":2912:3099  function _transferOwnership(address newOwner) internal virtual {... */\n    tag_59:\n        /* \"https://github.com/OpenZeppelin/openzeppelin-contracts/blob/master/contracts/access/Ownable.sol\":2985:3001  address oldOwner */\n      0x00\n        /* \"https://github.com/OpenZeppelin/openzeppelin-contracts/blob/master/contracts/access/Ownable.sol\":3004:3010  _owner */\n      dup1\n      0x00\n      swap1\n      sload\n      swap1\n      0x0100\n      exp\n      swap1\n      div\n      0xffffffffffffffffffffffffffffffffffffffff\n      and\n        /* \"https://github.com/OpenZeppelin/openzeppelin-contracts/blob/master/contracts/access/Ownable.sol\":2985:3010  address oldOwner = _owner */\n      swap1\n      pop\n        /* \"https://github.com/OpenZeppelin/openzeppelin-contracts/blob/master/contracts/access/Ownable.sol\":3029:3037  newOwner */\n      dup2\n        /* \"https://github.com/OpenZeppelin/openzeppelin-contracts/blob/master/contracts/access/Ownable.sol\":3020:3026  _owner */\n      0x00\n      dup1\n        /* \"https://github.com/OpenZeppelin/openzeppelin-contracts/blob/master/contracts/access/Ownable.sol\":3020:3037  _owner = newOwner */\n      0x0100\n      exp\n      dup2\n      sload\n      dup2\n      0xffffffffffffffffffffffffffffffffffffffff\n      mul\n      not\n      and\n      swap1\n      dup4\n      0xffffffffffffffffffffffffffffffffffffffff\n      and\n      mul\n      or\n      swap1\n      sstore\n      pop\n        /* \"https://github.com/OpenZeppelin/openzeppelin-contracts/blob/master/contracts/access/Ownable.sol\":3083:3091  newOwner */\n      dup2\n        /* \"https://github.com/OpenZeppelin/openzeppelin-contracts/blob/master/contracts/access/Ownable.sol\":3052:3092  OwnershipTransferred(oldOwner, newOwner) */\n      0xffffffffffffffffffffffffffffffffffffffff\n      and\n        /* \"https://github.com/OpenZeppelin/openzeppelin-contracts/blob/master/contracts/access/Ownable.sol\":3073:3081  oldOwner */\n      dup2\n        /* \"https://github.com/OpenZeppelin/openzeppelin-contracts/blob/master/contracts/access/Ownable.sol\":3052:3092  OwnershipTransferred(oldOwner, newOwner) */\n      0xffffffffffffffffffffffffffffffffffffffff\n      and\n      0x8be0079c531659141344cd1fd0a4f28419497f9722a3daafe3b4186f6b6457e0\n      mload(0x40)\n      mload(0x40)\n      dup1\n      swap2\n      sub\n      swap1\n      log3\n        /* \"https://github.com/OpenZeppelin/openzeppelin-contracts/blob/master/contracts/access/Ownable.sol\":2975:3099  {... */\n      pop\n        /* \"https://github.com/OpenZeppelin/openzeppelin-contracts/blob/master/contracts/access/Ownable.sol\":2912:3099  function _transferOwnership(address newOwner) internal virtual {... */\n      pop\n      jump\t// out\n        /* \"https://github.com/OpenZeppelin/openzeppelin-contracts/blob/master/contracts/utils/Context.sol\":656:752  function _msgSender() internal view virtual returns (address) {... */\n    tag_69:\n        /* \"https://github.com/OpenZeppelin/openzeppelin-contracts/blob/master/contracts/utils/Context.sol\":709:716  address */\n      0x00\n        /* \"https://github.com/OpenZeppelin/openzeppelin-contracts/blob/master/contracts/utils/Context.sol\":735:745  msg.sender */\n      caller\n        /* \"https://github.com/OpenZeppelin/openzeppelin-contracts/blob/master/contracts/utils/Context.sol\":728:745  return msg.sender */\n      swap1\n      pop\n        /* \"https://github.com/OpenZeppelin/openzeppelin-contracts/blob/master/contracts/utils/Context.sol\":656:752  function _msgSender() internal view virtual returns (address) {... */\n      swap1\n      jump\t// out\n        /* \"https://github.com/OpenZeppelin/openzeppelin-contracts/blob/master/contracts/token/ERC20/utils/SafeERC20.sol\":6550:7270  function _callOptionalReturn(IERC20 token, bytes memory data) private {... */\n    tag_78:\n        /* \"https://github.com/OpenZeppelin/openzeppelin-contracts/blob/master/contracts/token/ERC20/utils/SafeERC20.sol\":6630:6648  uint256 returnSize */\n      0x00\n        /* \"https://github.com/OpenZeppelin/openzeppelin-contracts/blob/master/contracts/token/ERC20/utils/SafeERC20.sol\":6658:6677  uint256 returnValue */\n      dup1\n        /* \"https://github.com/OpenZeppelin/openzeppelin-contracts/blob/master/contracts/token/ERC20/utils/SafeERC20.sol\":6796:6800  0x20 */\n      0x20\n        /* \"https://github.com/OpenZeppelin/openzeppelin-contracts/blob/master/contracts/token/ERC20/utils/SafeERC20.sol\":6793:6794  0 */\n      0x00\n        /* \"https://github.com/OpenZeppelin/openzeppelin-contracts/blob/master/contracts/token/ERC20/utils/SafeERC20.sol\":6786:6790  data */\n      dup5\n        /* \"https://github.com/OpenZeppelin/openzeppelin-contracts/blob/master/contracts/token/ERC20/utils/SafeERC20.sol\":6780:6791  mload(data) */\n      mload\n        /* \"https://github.com/OpenZeppelin/openzeppelin-contracts/blob/master/contracts/token/ERC20/utils/SafeERC20.sol\":6773:6777  0x20 */\n      0x20\n        /* \"https://github.com/OpenZeppelin/openzeppelin-contracts/blob/master/contracts/token/ERC20/utils/SafeERC20.sol\":6767:6771  data */\n      dup7\n        /* \"https://github.com/OpenZeppelin/openzeppelin-contracts/blob/master/contracts/token/ERC20/utils/SafeERC20.sol\":6763:6778  add(data, 0x20) */\n      add\n        /* \"https://github.com/OpenZeppelin/openzeppelin-contracts/blob/master/contracts/token/ERC20/utils/SafeERC20.sol\":6760:6761  0 */\n      0x00\n        /* \"https://github.com/OpenZeppelin/openzeppelin-contracts/blob/master/contracts/token/ERC20/utils/SafeERC20.sol\":6753:6758  token */\n      dup9\n        /* \"https://github.com/OpenZeppelin/openzeppelin-contracts/blob/master/contracts/token/ERC20/utils/SafeERC20.sol\":6746:6751  gas() */\n      gas\n        /* \"https://github.com/OpenZeppelin/openzeppelin-contracts/blob/master/contracts/token/ERC20/utils/SafeERC20.sol\":6741:6801  call(gas(), token, 0, add(data, 0x20), mload(data), 0, 0x20) */\n      call\n        /* \"https://github.com/OpenZeppelin/openzeppelin-contracts/blob/master/contracts/token/ERC20/utils/SafeERC20.sol\":6853:6860  success */\n      dup1\n        /* \"https://github.com/OpenZeppelin/openzeppelin-contracts/blob/master/contracts/token/ERC20/utils/SafeERC20.sol\":6843:7019  if iszero(success) {... */\n      tag_82\n      jumpi\n        /* \"https://github.com/OpenZeppelin/openzeppelin-contracts/blob/master/contracts/token/ERC20/utils/SafeERC20.sol\":6897:6901  0x40 */\n      0x40\n        /* \"https://github.com/OpenZeppelin/openzeppelin-contracts/blob/master/contracts/token/ERC20/utils/SafeERC20.sol\":6891:6902  mload(0x40) */\n      mload\n        /* \"https://github.com/OpenZeppelin/openzeppelin-contracts/blob/master/contracts/token/ERC20/utils/SafeERC20.sol\":6942:6958  returndatasize() */\n      returndatasize\n        /* \"https://github.com/OpenZeppelin/openzeppelin-contracts/blob/master/contracts/token/ERC20/utils/SafeERC20.sol\":6939:6940  0 */\n      0x00\n        /* \"https://github.com/OpenZeppelin/openzeppelin-contracts/blob/master/contracts/token/ERC20/utils/SafeERC20.sol\":6934:6937  ptr */\n      dup3\n        /* \"https://github.com/OpenZeppelin/openzeppelin-contracts/blob/master/contracts/token/ERC20/utils/SafeERC20.sol\":6919:6959  returndatacopy(ptr, 0, returndatasize()) */\n      returndatacopy\n        /* \"https://github.com/OpenZeppelin/openzeppelin-contracts/blob/master/contracts/token/ERC20/utils/SafeERC20.sol\":6988:7004  returndatasize() */\n      returndatasize\n        /* \"https://github.com/OpenZeppelin/openzeppelin-contracts/blob/master/contracts/token/ERC20/utils/SafeERC20.sol\":6983:6986  ptr */\n      dup2\n        /* \"https://github.com/OpenZeppelin/openzeppelin-contracts/blob/master/contracts/token/ERC20/utils/SafeERC20.sol\":6976:7005  revert(ptr, returndatasize()) */\n      revert\n        /* \"https://github.com/OpenZeppelin/openzeppelin-contracts/blob/master/contracts/token/ERC20/utils/SafeERC20.sol\":6843:7019  if iszero(success) {... */\n    tag_82:\n        /* \"https://github.com/OpenZeppelin/openzeppelin-contracts/blob/master/contracts/token/ERC20/utils/SafeERC20.sol\":7046:7062  returndatasize() */\n      returndatasize\n        /* \"https://github.com/OpenZeppelin/openzeppelin-contracts/blob/master/contracts/token/ERC20/utils/SafeERC20.sol\":7032:7062  returnSize := returndatasize() */\n      swap3\n      pop\n        /* \"https://github.com/OpenZeppelin/openzeppelin-contracts/blob/master/contracts/token/ERC20/utils/SafeERC20.sol\":7096:7097  0 */\n      0x00\n        /* \"https://github.com/OpenZeppelin/openzeppelin-contracts/blob/master/contracts/token/ERC20/utils/SafeERC20.sol\":7090:7098  mload(0) */\n      mload\n        /* \"https://github.com/OpenZeppelin/openzeppelin-contracts/blob/master/contracts/token/ERC20/utils/SafeERC20.sol\":7075:7098  returnValue := mload(0) */\n      swap2\n      pop\n        /* \"https://github.com/OpenZeppelin/openzeppelin-contracts/blob/master/contracts/token/ERC20/utils/SafeERC20.sol\":6712:7108  {... */\n      pop\n        /* \"https://github.com/OpenZeppelin/openzeppelin-contracts/blob/master/contracts/token/ERC20/utils/SafeERC20.sol\":7136:7137  0 */\n      0x00\n        /* \"https://github.com/OpenZeppelin/openzeppelin-contracts/blob/master/contracts/token/ERC20/utils/SafeERC20.sol\":7122:7132  returnSize */\n      dup3\n        /* \"https://github.com/OpenZeppelin/openzeppelin-contracts/blob/master/contracts/token/ERC20/utils/SafeERC20.sol\":7122:7137  returnSize == 0 */\n      eq\n        /* \"https://github.com/OpenZeppelin/openzeppelin-contracts/blob/master/contracts/token/ERC20/utils/SafeERC20.sol\":7122:7190  returnSize == 0 ? address(token).code.length == 0 : returnValue != 1 */\n      tag_83\n      jumpi\n        /* \"https://github.com/OpenZeppelin/openzeppelin-contracts/blob/master/contracts/token/ERC20/utils/SafeERC20.sol\":7189:7190  1 */\n      0x01\n        /* \"https://github.com/OpenZeppelin/openzeppelin-contracts/blob/master/contracts/token/ERC20/utils/SafeERC20.sol\":7174:7185  returnValue */\n      dup2\n        /* \"https://github.com/OpenZeppelin/openzeppelin-contracts/blob/master/contracts/token/ERC20/utils/SafeERC20.sol\":7174:7190  returnValue != 1 */\n      eq\n      iszero\n        /* \"https://github.com/OpenZeppelin/openzeppelin-contracts/blob/master/contracts/token/ERC20/utils/SafeERC20.sol\":7122:7190  returnSize == 0 ? address(token).code.length == 0 : returnValue != 1 */\n      jump(tag_84)\n    tag_83:\n        /* \"https://github.com/OpenZeppelin/openzeppelin-contracts/blob/master/contracts/token/ERC20/utils/SafeERC20.sol\":7170:7171  0 */\n      0x00\n        /* \"https://github.com/OpenZeppelin/openzeppelin-contracts/blob/master/contracts/token/ERC20/utils/SafeERC20.sol\":7148:7153  token */\n      dup5\n        /* \"https://github.com/OpenZeppelin/openzeppelin-contracts/blob/master/contracts/token/ERC20/utils/SafeERC20.sol\":7140:7166  address(token).code.length */\n      0xffffffffffffffffffffffffffffffffffffffff\n      and\n      extcodesize\n        /* \"https://github.com/OpenZeppelin/openzeppelin-contracts/blob/master/contracts/token/ERC20/utils/SafeERC20.sol\":7140:7171  address(token).code.length == 0 */\n      eq\n        /* \"https://github.com/OpenZeppelin/openzeppelin-contracts/blob/master/contracts/token/ERC20/utils/SafeERC20.sol\":7122:7190  returnSize == 0 ? address(token).code.length == 0 : returnValue != 1 */\n    tag_84:\n        /* \"https://github.com/OpenZeppelin/openzeppelin-contracts/blob/master/contracts/token/ERC20/utils/SafeERC20.sol\":7118:7264  if (returnSize == 0 ? address(token).code.length == 0 : returnValue != 1) {... */\n      iszero\n      tag_85\n      jumpi\n        /* \"https://github.com/OpenZeppelin/openzeppelin-contracts/blob/master/contracts/token/ERC20/utils/SafeERC20.sol\":7246:7251  token */\n      dup4\n        /* \"https://github.com/OpenZeppelin/openzeppelin-contracts/blob/master/contracts/token/ERC20/utils/SafeERC20.sol\":7213:7253  SafeERC20FailedOperation(address(token)) */\n      mload(0x40)\n      0x5274afe700000000000000000000000000000000000000000000000000000000\n      dup2\n      mstore\n      0x04\n      add\n      tag_86\n      swap2\n      swap1\n      tag_22\n      jump\t// in\n    tag_86:\n      mload(0x40)\n      dup1\n      swap2\n      sub\n      swap1\n      revert\n        /* \"https://github.com/OpenZeppelin/openzeppelin-contracts/blob/master/contracts/token/ERC20/utils/SafeERC20.sol\":7118:7264  if (returnSize == 0 ? address(token).code.length == 0 : returnValue != 1) {... */\n    tag_85:\n        /* \"https://github.com/OpenZeppelin/openzeppelin-contracts/blob/master/contracts/token/ERC20/utils/SafeERC20.sol\":6620:7270  {... */\n      pop\n      pop\n        /* \"https://github.com/OpenZeppelin/openzeppelin-contracts/blob/master/contracts/token/ERC20/utils/SafeERC20.sol\":6550:7270  function _callOptionalReturn(IERC20 token, bytes memory data) private {... */\n      pop\n      pop\n      jump\t// out\n        /* \"#utility.yul\":88:205   */\n    tag_88:\n        /* \"#utility.yul\":197:198   */\n      0x00\n        /* \"#utility.yul\":194:195   */\n      dup1\n        /* \"#utility.yul\":187:199   */\n      revert\n        /* \"#utility.yul\":211:328   */\n    tag_89:\n        /* \"#utility.yul\":320:321   */\n      0x00\n        /* \"#utility.yul\":317:318   */\n      dup1\n        /* \"#utility.yul\":310:322   */\n      revert\n        /* \"#utility.yul\":334:460   */\n    tag_90:\n        /* \"#utility.yul\":371:378   */\n      0x00\n        /* \"#utility.yul\":411:453   */\n      0xffffffffffffffffffffffffffffffffffffffff\n        /* \"#utility.yul\":404:409   */\n      dup3\n        /* \"#utility.yul\":400:454   */\n      and\n        /* \"#utility.yul\":389:454   */\n      swap1\n      pop\n        /* \"#utility.yul\":334:460   */\n      swap2\n      swap1\n      pop\n      jump\t// out\n        /* \"#utility.yul\":466:562   */\n    tag_91:\n        /* \"#utility.yul\":503:510   */\n      0x00\n        /* \"#utility.yul\":532:556   */\n      tag_121\n        /* \"#utility.yul\":550:555   */\n      dup3\n        /* \"#utility.yul\":532:556   */\n      tag_90\n      jump\t// in\n    tag_121:\n        /* \"#utility.yul\":521:556   */\n      swap1\n      pop\n        /* \"#utility.yul\":466:562   */\n      swap2\n      swap1\n      pop\n      jump\t// out\n        /* \"#utility.yul\":568:678   */\n    tag_92:\n        /* \"#utility.yul\":619:626   */\n      0x00\n        /* \"#utility.yul\":648:672   */\n      tag_123\n        /* \"#utility.yul\":666:671   */\n      dup3\n        /* \"#utility.yul\":648:672   */\n      tag_91\n      jump\t// in\n    tag_123:\n        /* \"#utility.yul\":637:672   */\n      swap1\n      pop\n        /* \"#utility.yul\":568:678   */\n      swap2\n      swap1\n      pop\n      jump\t// out\n        /* \"#utility.yul\":684:834   */\n    tag_93:\n        /* \"#utility.yul\":771:809   */\n      tag_125\n        /* \"#utility.yul\":803:808   */\n      dup2\n        /* \"#utility.yul\":771:809   */\n      tag_92\n      jump\t// in\n    tag_125:\n        /* \"#utility.yul\":764:769   */\n      dup2\n        /* \"#utility.yul\":761:810   */\n      eq\n        /* \"#utility.yul\":751:828   */\n      tag_126\n      jumpi\n        /* \"#utility.yul\":824:825   */\n      0x00\n        /* \"#utility.yul\":821:822   */\n      dup1\n        /* \"#utility.yul\":814:826   */\n      revert\n        /* \"#utility.yul\":751:828   */\n    tag_126:\n        /* \"#utility.yul\":684:834   */\n      pop\n      jump\t// out\n        /* \"#utility.yul\":840:1007   */\n    tag_94:\n        /* \"#utility.yul\":900:905   */\n      0x00\n        /* \"#utility.yul\":938:944   */\n      dup2\n        /* \"#utility.yul\":925:945   */\n      calldataload\n        /* \"#utility.yul\":916:945   */\n      swap1\n      pop\n        /* \"#utility.yul\":954:1001   */\n      tag_128\n        /* \"#utility.yul\":995:1000   */\n      dup2\n        /* \"#utility.yul\":954:1001   */\n      tag_93\n      jump\t// in\n    tag_128:\n        /* \"#utility.yul\":840:1007   */\n      swap3\n      swap2\n      pop\n      pop\n      jump\t// out\n        /* \"#utility.yul\":1013:1370   */\n    tag_11:\n        /* \"#utility.yul\":1086:1092   */\n      0x00\n        /* \"#utility.yul\":1135:1137   */\n      0x20\n        /* \"#utility.yul\":1123:1132   */\n      dup3\n        /* \"#utility.yul\":1114:1121   */\n      dup5\n        /* \"#utility.yul\":1110:1133   */\n      sub\n        /* \"#utility.yul\":1106:1138   */\n      slt\n        /* \"#utility.yul\":1103:1222   */\n      iszero\n      tag_130\n      jumpi\n        /* \"#utility.yul\":1141:1220   */\n      tag_131\n      tag_88\n      jump\t// in\n    tag_131:\n        /* \"#utility.yul\":1103:1222   */\n    tag_130:\n        /* \"#utility.yul\":1261:1262   */\n      0x00\n        /* \"#utility.yul\":1286:1353   */\n      tag_132\n        /* \"#utility.yul\":1345:1352   */\n      dup5\n        /* \"#utility.yul\":1336:1342   */\n      dup3\n        /* \"#utility.yul\":1325:1334   */\n      dup6\n        /* \"#utility.yul\":1321:1343   */\n      add\n        /* \"#utility.yul\":1286:1353   */\n      tag_94\n      jump\t// in\n    tag_132:\n        /* \"#utility.yul\":1276:1353   */\n      swap2\n      pop\n        /* \"#utility.yul\":1232:1363   */\n      pop\n        /* \"#utility.yul\":1013:1370   */\n      swap3\n      swap2\n      pop\n      pop\n      jump\t// out\n        /* \"#utility.yul\":1376:1493   */\n    tag_95:\n        /* \"#utility.yul\":1485:1486   */\n      0x00\n        /* \"#utility.yul\":1482:1483   */\n      dup1\n        /* \"#utility.yul\":1475:1487   */\n      revert\n        /* \"#utility.yul\":1499:1616   */\n    tag_96:\n        /* \"#utility.yul\":1608:1609   */\n      0x00\n        /* \"#utility.yul\":1605:1606   */\n      dup1\n        /* \"#utility.yul\":1598:1610   */\n      revert\n        /* \"#utility.yul\":1622:1739   */\n    tag_97:\n        /* \"#utility.yul\":1731:1732   */\n      0x00\n        /* \"#utility.yul\":1728:1729   */\n      dup1\n        /* \"#utility.yul\":1721:1733   */\n      revert\n        /* \"#utility.yul\":1762:2330   */\n    tag_98:\n        /* \"#utility.yul\":1835:1843   */\n      0x00\n        /* \"#utility.yul\":1845:1851   */\n      dup1\n        /* \"#utility.yul\":1895:1898   */\n      dup4\n        /* \"#utility.yul\":1888:1892   */\n      0x1f\n        /* \"#utility.yul\":1880:1886   */\n      dup5\n        /* \"#utility.yul\":1876:1893   */\n      add\n        /* \"#utility.yul\":1872:1899   */\n      slt\n        /* \"#utility.yul\":1862:1984   */\n      tag_137\n      jumpi\n        /* \"#utility.yul\":1903:1982   */\n      tag_138\n      tag_95\n      jump\t// in\n    tag_138:\n        /* \"#utility.yul\":1862:1984   */\n    tag_137:\n        /* \"#utility.yul\":2016:2022   */\n      dup3\n        /* \"#utility.yul\":2003:2023   */\n      calldataload\n        /* \"#utility.yul\":1993:2023   */\n      swap1\n      pop\n        /* \"#utility.yul\":2046:2064   */\n      0xffffffffffffffff\n        /* \"#utility.yul\":2038:2044   */\n      dup2\n        /* \"#utility.yul\":2035:2065   */\n      gt\n        /* \"#utility.yul\":2032:2149   */\n      iszero\n      tag_139\n      jumpi\n        /* \"#utility.yul\":2068:2147   */\n      tag_140\n      tag_96\n      jump\t// in\n    tag_140:\n        /* \"#utility.yul\":2032:2149   */\n    tag_139:\n        /* \"#utility.yul\":2182:2186   */\n      0x20\n        /* \"#utility.yul\":2174:2180   */\n      dup4\n        /* \"#utility.yul\":2170:2187   */\n      add\n        /* \"#utility.yul\":2158:2187   */\n      swap2\n      pop\n        /* \"#utility.yul\":2236:2239   */\n      dup4\n        /* \"#utility.yul\":2228:2232   */\n      0x20\n        /* \"#utility.yul\":2220:2226   */\n      dup3\n        /* \"#utility.yul\":2216:2233   */\n      mul\n        /* \"#utility.yul\":2206:2214   */\n      dup4\n        /* \"#utility.yul\":2202:2234   */\n      add\n        /* \"#utility.yul\":2199:2240   */\n      gt\n        /* \"#utility.yul\":2196:2324   */\n      iszero\n      tag_141\n      jumpi\n        /* \"#utility.yul\":2243:2322   */\n      tag_142\n      tag_97\n      jump\t// in\n    tag_142:\n        /* \"#utility.yul\":2196:2324   */\n    tag_141:\n        /* \"#utility.yul\":1762:2330   */\n      swap3\n      pop\n      swap3\n      swap1\n      pop\n      jump\t// out\n        /* \"#utility.yul\":2353:2921   */\n    tag_99:\n        /* \"#utility.yul\":2426:2434   */\n      0x00\n        /* \"#utility.yul\":2436:2442   */\n      dup1\n        /* \"#utility.yul\":2486:2489   */\n      dup4\n        /* \"#utility.yul\":2479:2483   */\n      0x1f\n        /* \"#utility.yul\":2471:2477   */\n      dup5\n        /* \"#utility.yul\":2467:2484   */\n      add\n        /* \"#utility.yul\":2463:2490   */\n      slt\n        /* \"#utility.yul\":2453:2575   */\n      tag_144\n      jumpi\n        /* \"#utility.yul\":2494:2573   */\n      tag_145\n      tag_95\n      jump\t// in\n    tag_145:\n        /* \"#utility.yul\":2453:2575   */\n    tag_144:\n        /* \"#utility.yul\":2607:2613   */\n      dup3\n        /* \"#utility.yul\":2594:2614   */\n      calldataload\n        /* \"#utility.yul\":2584:2614   */\n      swap1\n      pop\n        /* \"#utility.yul\":2637:2655   */\n      0xffffffffffffffff\n        /* \"#utility.yul\":2629:2635   */\n      dup2\n        /* \"#utility.yul\":2626:2656   */\n      gt\n        /* \"#utility.yul\":2623:2740   */\n      iszero\n      tag_146\n      jumpi\n        /* \"#utility.yul\":2659:2738   */\n      tag_147\n      tag_96\n      jump\t// in\n    tag_147:\n        /* \"#utility.yul\":2623:2740   */\n    tag_146:\n        /* \"#utility.yul\":2773:2777   */\n      0x20\n        /* \"#utility.yul\":2765:2771   */\n      dup4\n        /* \"#utility.yul\":2761:2778   */\n      add\n        /* \"#utility.yul\":2749:2778   */\n      swap2\n      pop\n        /* \"#utility.yul\":2827:2830   */\n      dup4\n        /* \"#utility.yul\":2819:2823   */\n      0x20\n        /* \"#utility.yul\":2811:2817   */\n      dup3\n        /* \"#utility.yul\":2807:2824   */\n      mul\n        /* \"#utility.yul\":2797:2805   */\n      dup4\n        /* \"#utility.yul\":2793:2825   */\n      add\n        /* \"#utility.yul\":2790:2831   */\n      gt\n        /* \"#utility.yul\":2787:2915   */\n      iszero\n      tag_148\n      jumpi\n        /* \"#utility.yul\":2834:2913   */\n      tag_149\n      tag_97\n      jump\t// in\n    tag_149:\n        /* \"#utility.yul\":2787:2915   */\n    tag_148:\n        /* \"#utility.yul\":2353:2921   */\n      swap3\n      pop\n      swap3\n      swap1\n      pop\n      jump\t// out\n        /* \"#utility.yul\":2927:3861   */\n    tag_15:\n        /* \"#utility.yul\":3049:3055   */\n      0x00\n        /* \"#utility.yul\":3057:3063   */\n      dup1\n        /* \"#utility.yul\":3065:3071   */\n      0x00\n        /* \"#utility.yul\":3073:3079   */\n      dup1\n        /* \"#utility.yul\":3122:3124   */\n      0x40\n        /* \"#utility.yul\":3110:3119   */\n      dup6\n        /* \"#utility.yul\":3101:3108   */\n      dup8\n        /* \"#utility.yul\":3097:3120   */\n      sub\n        /* \"#utility.yul\":3093:3125   */\n      slt\n        /* \"#utility.yul\":3090:3209   */\n      iszero\n      tag_151\n      jumpi\n        /* \"#utility.yul\":3128:3207   */\n      tag_152\n      tag_88\n      jump\t// in\n    tag_152:\n        /* \"#utility.yul\":3090:3209   */\n    tag_151:\n        /* \"#utility.yul\":3276:3277   */\n      0x00\n        /* \"#utility.yul\":3265:3274   */\n      dup6\n        /* \"#utility.yul\":3261:3278   */\n      add\n        /* \"#utility.yul\":3248:3279   */\n      calldataload\n        /* \"#utility.yul\":3306:3324   */\n      0xffffffffffffffff\n        /* \"#utility.yul\":3298:3304   */\n      dup2\n        /* \"#utility.yul\":3295:3325   */\n      gt\n        /* \"#utility.yul\":3292:3409   */\n      iszero\n      tag_153\n      jumpi\n        /* \"#utility.yul\":3328:3407   */\n      tag_154\n      tag_89\n      jump\t// in\n    tag_154:\n        /* \"#utility.yul\":3292:3409   */\n    tag_153:\n        /* \"#utility.yul\":3441:3521   */\n      tag_155\n        /* \"#utility.yul\":3513:3520   */\n      dup8\n        /* \"#utility.yul\":3504:3510   */\n      dup3\n        /* \"#utility.yul\":3493:3502   */\n      dup9\n        /* \"#utility.yul\":3489:3511   */\n      add\n        /* \"#utility.yul\":3441:3521   */\n      tag_98\n      jump\t// in\n    tag_155:\n        /* \"#utility.yul\":3423:3521   */\n      swap5\n      pop\n      swap5\n      pop\n        /* \"#utility.yul\":3219:3531   */\n      pop\n        /* \"#utility.yul\":3598:3600   */\n      0x20\n        /* \"#utility.yul\":3587:3596   */\n      dup6\n        /* \"#utility.yul\":3583:3601   */\n      add\n        /* \"#utility.yul\":3570:3602   */\n      calldataload\n        /* \"#utility.yul\":3629:3647   */\n      0xffffffffffffffff\n        /* \"#utility.yul\":3621:3627   */\n      dup2\n        /* \"#utility.yul\":3618:3648   */\n      gt\n        /* \"#utility.yul\":3615:3732   */\n      iszero\n      tag_156\n      jumpi\n        /* \"#utility.yul\":3651:3730   */\n      tag_157\n      tag_89\n      jump\t// in\n    tag_157:\n        /* \"#utility.yul\":3615:3732   */\n    tag_156:\n        /* \"#utility.yul\":3764:3844   */\n      tag_158\n        /* \"#utility.yul\":3836:3843   */\n      dup8\n        /* \"#utility.yul\":3827:3833   */\n      dup3\n        /* \"#utility.yul\":3816:3825   */\n      dup9\n        /* \"#utility.yul\":3812:3834   */\n      add\n        /* \"#utility.yul\":3764:3844   */\n      tag_99\n      jump\t// in\n    tag_158:\n        /* \"#utility.yul\":3746:3844   */\n      swap3\n      pop\n      swap3\n      pop\n        /* \"#utility.yul\":3541:3854   */\n      pop\n        /* \"#utility.yul\":2927:3861   */\n      swap3\n      swap6\n      swap2\n      swap5\n      pop\n      swap3\n      pop\n      jump\t// out\n        /* \"#utility.yul\":3867:3985   */\n    tag_100:\n        /* \"#utility.yul\":3954:3978   */\n      tag_160\n        /* \"#utility.yul\":3972:3977   */\n      dup2\n        /* \"#utility.yul\":3954:3978   */\n      tag_91\n      jump\t// in\n    tag_160:\n        /* \"#utility.yul\":3949:3952   */\n      dup3\n        /* \"#utility.yul\":3942:3979   */\n      mstore\n        /* \"#utility.yul\":3867:3985   */\n      pop\n      pop\n      jump\t// out\n        /* \"#utility.yul\":3991:4213   */\n    tag_22:\n        /* \"#utility.yul\":4084:4088   */\n      0x00\n        /* \"#utility.yul\":4122:4124   */\n      0x20\n        /* \"#utility.yul\":4111:4120   */\n      dup3\n        /* \"#utility.yul\":4107:4125   */\n      add\n        /* \"#utility.yul\":4099:4125   */\n      swap1\n      pop\n        /* \"#utility.yul\":4135:4206   */\n      tag_162\n        /* \"#utility.yul\":4203:4204   */\n      0x00\n        /* \"#utility.yul\":4192:4201   */\n      dup4\n        /* \"#utility.yul\":4188:4205   */\n      add\n        /* \"#utility.yul\":4179:4185   */\n      dup5\n        /* \"#utility.yul\":4135:4206   */\n      tag_100\n      jump\t// in\n    tag_162:\n        /* \"#utility.yul\":3991:4213   */\n      swap3\n      swap2\n      pop\n      pop\n      jump\t// out\n        /* \"#utility.yul\":4219:4341   */\n    tag_101:\n        /* \"#utility.yul\":4292:4316   */\n      tag_164\n        /* \"#utility.yul\":4310:4315   */\n      dup2\n        /* \"#utility.yul\":4292:4316   */\n      tag_91\n      jump\t// in\n    tag_164:\n        /* \"#utility.yul\":4285:4290   */\n      dup2\n        /* \"#utility.yul\":4282:4317   */\n      eq\n        /* \"#utility.yul\":4272:4335   */\n      tag_165\n      jumpi\n        /* \"#utility.yul\":4331:4332   */\n      0x00\n        /* \"#utility.yul\":4328:4329   */\n      dup1\n        /* \"#utility.yul\":4321:4333   */\n      revert\n        /* \"#utility.yul\":4272:4335   */\n    tag_165:\n        /* \"#utility.yul\":4219:4341   */\n      pop\n      jump\t// out\n        /* \"#utility.yul\":4347:4486   */\n    tag_102:\n        /* \"#utility.yul\":4393:4398   */\n      0x00\n        /* \"#utility.yul\":4431:4437   */\n      dup2\n        /* \"#utility.yul\":4418:4438   */\n      calldataload\n        /* \"#utility.yul\":4409:4438   */\n      swap1\n      pop\n        /* \"#utility.yul\":4447:4480   */\n      tag_167\n        /* \"#utility.yul\":4474:4479   */\n      dup2\n        /* \"#utility.yul\":4447:4480   */\n      tag_101\n      jump\t// in\n    tag_167:\n        /* \"#utility.yul\":4347:4486   */\n      swap3\n      swap2\n      pop\n      pop\n      jump\t// out\n        /* \"#utility.yul\":4492:4821   */\n    tag_25:\n        /* \"#utility.yul\":4551:4557   */\n      0x00\n        /* \"#utility.yul\":4600:4602   */\n      0x20\n        /* \"#utility.yul\":4588:4597   */\n      dup3\n        /* \"#utility.yul\":4579:4586   */\n      dup5\n        /* \"#utility.yul\":4575:4598   */\n      sub\n        /* \"#utility.yul\":4571:4603   */\n      slt\n        /* \"#utility.yul\":4568:4687   */\n      iszero\n      tag_169\n      jumpi\n        /* \"#utility.yul\":4606:4685   */\n      tag_170\n      tag_88\n      jump\t// in\n    tag_170:\n        /* \"#utility.yul\":4568:4687   */\n    tag_169:\n        /* \"#utility.yul\":4726:4727   */\n      0x00\n        /* \"#utility.yul\":4751:4804   */\n      tag_171\n        /* \"#utility.yul\":4796:4803   */\n      dup5\n        /* \"#utility.yul\":4787:4793   */\n      dup3\n        /* \"#utility.yul\":4776:4785   */\n      dup6\n        /* \"#utility.yul\":4772:4794   */\n      add\n        /* \"#utility.yul\":4751:4804   */\n      tag_102\n      jump\t// in\n    tag_171:\n        /* \"#utility.yul\":4741:4804   */\n      swap2\n      pop\n        /* \"#utility.yul\":4697:4814   */\n      pop\n        /* \"#utility.yul\":4492:4821   */\n      swap3\n      swap2\n      pop\n      pop\n      jump\t// out\n        /* \"#utility.yul\":4827:4887   */\n    tag_103:\n        /* \"#utility.yul\":4855:4858   */\n      0x00\n        /* \"#utility.yul\":4876:4881   */\n      dup2\n        /* \"#utility.yul\":4869:4881   */\n      swap1\n      pop\n        /* \"#utility.yul\":4827:4887   */\n      swap2\n      swap1\n      pop\n      jump\t// out\n        /* \"#utility.yul\":4893:5035   */\n    tag_104:\n        /* \"#utility.yul\":4943:4952   */\n      0x00\n        /* \"#utility.yul\":4976:5029   */\n      tag_174\n        /* \"#utility.yul\":4994:5028   */\n      tag_175\n        /* \"#utility.yul\":5003:5027   */\n      tag_176\n        /* \"#utility.yul\":5021:5026   */\n      dup5\n        /* \"#utility.yul\":5003:5027   */\n      tag_90\n      jump\t// in\n    tag_176:\n        /* \"#utility.yul\":4994:5028   */\n      tag_103\n      jump\t// in\n    tag_175:\n        /* \"#utility.yul\":4976:5029   */\n      tag_90\n      jump\t// in\n    tag_174:\n        /* \"#utility.yul\":4963:5029   */\n      swap1\n      pop\n        /* \"#utility.yul\":4893:5035   */\n      swap2\n      swap1\n      pop\n      jump\t// out\n        /* \"#utility.yul\":5041:5167   */\n    tag_105:\n        /* \"#utility.yul\":5091:5100   */\n      0x00\n        /* \"#utility.yul\":5124:5161   */\n      tag_178\n        /* \"#utility.yul\":5155:5160   */\n      dup3\n        /* \"#utility.yul\":5124:5161   */\n      tag_104\n      jump\t// in\n    tag_178:\n        /* \"#utility.yul\":5111:5161   */\n      swap1\n      pop\n        /* \"#utility.yul\":5041:5167   */\n      swap2\n      swap1\n      pop\n      jump\t// out\n        /* \"#utility.yul\":5173:5313   */\n    tag_106:\n        /* \"#utility.yul\":5237:5246   */\n      0x00\n        /* \"#utility.yul\":5270:5307   */\n      tag_180\n        /* \"#utility.yul\":5301:5306   */\n      dup3\n        /* \"#utility.yul\":5270:5307   */\n      tag_105\n      jump\t// in\n    tag_180:\n        /* \"#utility.yul\":5257:5307   */\n      swap1\n      pop\n        /* \"#utility.yul\":5173:5313   */\n      swap2\n      swap1\n      pop\n      jump\t// out\n        /* \"#utility.yul\":5319:5478   */\n    tag_107:\n        /* \"#utility.yul\":5420:5471   */\n      tag_182\n        /* \"#utility.yul\":5465:5470   */\n      dup2\n        /* \"#utility.yul\":5420:5471   */\n      tag_106\n      jump\t// in\n    tag_182:\n        /* \"#utility.yul\":5415:5418   */\n      dup3\n        /* \"#utility.yul\":5408:5472   */\n      mstore\n        /* \"#utility.yul\":5319:5478   */\n      pop\n      pop\n      jump\t// out\n        /* \"#utility.yul\":5484:5734   */\n    tag_30:\n        /* \"#utility.yul\":5591:5595   */\n      0x00\n        /* \"#utility.yul\":5629:5631   */\n      0x20\n        /* \"#utility.yul\":5618:5627   */\n      dup3\n        /* \"#utility.yul\":5614:5632   */\n      add\n        /* \"#utility.yul\":5606:5632   */\n      swap1\n      pop\n        /* \"#utility.yul\":5642:5727   */\n      tag_184\n        /* \"#utility.yul\":5724:5725   */\n      0x00\n        /* \"#utility.yul\":5713:5722   */\n      dup4\n        /* \"#utility.yul\":5709:5726   */\n      add\n        /* \"#utility.yul\":5700:5706   */\n      dup5\n        /* \"#utility.yul\":5642:5727   */\n      tag_107\n      jump\t// in\n    tag_184:\n        /* \"#utility.yul\":5484:5734   */\n      swap3\n      swap2\n      pop\n      pop\n      jump\t// out\n        /* \"#utility.yul\":5740:5909   */\n    tag_108:\n        /* \"#utility.yul\":5824:5835   */\n      0x00\n        /* \"#utility.yul\":5858:5864   */\n      dup3\n        /* \"#utility.yul\":5853:5856   */\n      dup3\n        /* \"#utility.yul\":5846:5865   */\n      mstore\n        /* \"#utility.yul\":5898:5902   */\n      0x20\n        /* \"#utility.yul\":5893:5896   */\n      dup3\n        /* \"#utility.yul\":5889:5903   */\n      add\n        /* \"#utility.yul\":5874:5903   */\n      swap1\n      pop\n        /* \"#utility.yul\":5740:5909   */\n      swap3\n      swap2\n      pop\n      pop\n      jump\t// out\n        /* \"#utility.yul\":5915:6094   */\n    tag_109:\n        /* \"#utility.yul\":6055:6086   */\n      0x546f6b656e20616464726573732063616e6e6f74206265207a65726f2e000000\n        /* \"#utility.yul\":6051:6052   */\n      0x00\n        /* \"#utility.yul\":6043:6049   */\n      dup3\n        /* \"#utility.yul\":6039:6053   */\n      add\n        /* \"#utility.yul\":6032:6087   */\n      mstore\n        /* \"#utility.yul\":5915:6094   */\n      pop\n      jump\t// out\n        /* \"#utility.yul\":6100:6466   */\n    tag_110:\n        /* \"#utility.yul\":6242:6245   */\n      0x00\n        /* \"#utility.yul\":6263:6330   */\n      tag_188\n        /* \"#utility.yul\":6327:6329   */\n      0x1d\n        /* \"#utility.yul\":6322:6325   */\n      dup4\n        /* \"#utility.yul\":6263:6330   */\n      tag_108\n      jump\t// in\n    tag_188:\n        /* \"#utility.yul\":6256:6330   */\n      swap2\n      pop\n        /* \"#utility.yul\":6339:6432   */\n      tag_189\n        /* \"#utility.yul\":6428:6431   */\n      dup3\n        /* \"#utility.yul\":6339:6432   */\n      tag_109\n      jump\t// in\n    tag_189:\n        /* \"#utility.yul\":6457:6459   */\n      0x20\n        /* \"#utility.yul\":6452:6455   */\n      dup3\n        /* \"#utility.yul\":6448:6460   */\n      add\n        /* \"#utility.yul\":6441:6460   */\n      swap1\n      pop\n        /* \"#utility.yul\":6100:6466   */\n      swap2\n      swap1\n      pop\n      jump\t// out\n        /* \"#utility.yul\":6472:6891   */\n    tag_37:\n        /* \"#utility.yul\":6638:6642   */\n      0x00\n        /* \"#utility.yul\":6676:6678   */\n      0x20\n        /* \"#utility.yul\":6665:6674   */\n      dup3\n        /* \"#utility.yul\":6661:6679   */\n      add\n        /* \"#utility.yul\":6653:6679   */\n      swap1\n      pop\n        /* \"#utility.yul\":6725:6734   */\n      dup2\n        /* \"#utility.yul\":6719:6723   */\n      dup2\n        /* \"#utility.yul\":6715:6735   */\n      sub\n        /* \"#utility.yul\":6711:6712   */\n      0x00\n        /* \"#utility.yul\":6700:6709   */\n      dup4\n        /* \"#utility.yul\":6696:6713   */\n      add\n        /* \"#utility.yul\":6689:6736   */\n      mstore\n        /* \"#utility.yul\":6753:6884   */\n      tag_191\n        /* \"#utility.yul\":6879:6883   */\n      dup2\n        /* \"#utility.yul\":6753:6884   */\n      tag_110\n      jump\t// in\n    tag_191:\n        /* \"#utility.yul\":6745:6884   */\n      swap1\n      pop\n        /* \"#utility.yul\":6472:6891   */\n      swap2\n      swap1\n      pop\n      jump\t// out\n        /* \"#utility.yul\":6897:7123   */\n    tag_111:\n        /* \"#utility.yul\":7037:7071   */\n      0x526563697069656e747320616e6420616d6f756e7473206c656e677468206d69\n        /* \"#utility.yul\":7033:7034   */\n      0x00\n        /* \"#utility.yul\":7025:7031   */\n      dup3\n        /* \"#utility.yul\":7021:7035   */\n      add\n        /* \"#utility.yul\":7014:7072   */\n      mstore\n        /* \"#utility.yul\":7106:7115   */\n      0x736d617463682e00000000000000000000000000000000000000000000000000\n        /* \"#utility.yul\":7101:7103   */\n      0x20\n        /* \"#utility.yul\":7093:7099   */\n      dup3\n        /* \"#utility.yul\":7089:7104   */\n      add\n        /* \"#utility.yul\":7082:7116   */\n      mstore\n        /* \"#utility.yul\":6897:7123   */\n      pop\n      jump\t// out\n        /* \"#utility.yul\":7129:7495   */\n    tag_112:\n        /* \"#utility.yul\":7271:7274   */\n      0x00\n        /* \"#utility.yul\":7292:7359   */\n      tag_194\n        /* \"#utility.yul\":7356:7358   */\n      0x27\n        /* \"#utility.yul\":7351:7354   */\n      dup4\n        /* \"#utility.yul\":7292:7359   */\n      tag_108\n      jump\t// in\n    tag_194:\n        /* \"#utility.yul\":7285:7359   */\n      swap2\n      pop\n        /* \"#utility.yul\":7368:7461   */\n      tag_195\n        /* \"#utility.yul\":7457:7460   */\n      dup3\n        /* \"#utility.yul\":7368:7461   */\n      tag_111\n      jump\t// in\n    tag_195:\n        /* \"#utility.yul\":7486:7488   */\n      0x40\n        /* \"#utility.yul\":7481:7484   */\n      dup3\n        /* \"#utility.yul\":7477:7489   */\n      add\n        /* \"#utility.yul\":7470:7489   */\n      swap1\n      pop\n        /* \"#utility.yul\":7129:7495   */\n      swap2\n      swap1\n      pop\n      jump\t// out\n        /* \"#utility.yul\":7501:7920   */\n    tag_43:\n        /* \"#utility.yul\":7667:7671   */\n      0x00\n        /* \"#utility.yul\":7705:7707   */\n      0x20\n        /* \"#utility.yul\":7694:7703   */\n      dup3\n        /* \"#utility.yul\":7690:7708   */\n      add\n        /* \"#utility.yul\":7682:7708   */\n      swap1\n      pop\n        /* \"#utility.yul\":7754:7763   */\n      dup2\n        /* \"#utility.yul\":7748:7752   */\n      dup2\n        /* \"#utility.yul\":7744:7764   */\n      sub\n        /* \"#utility.yul\":7740:7741   */\n      0x00\n        /* \"#utility.yul\":7729:7738   */\n      dup4\n        /* \"#utility.yul\":7725:7742   */\n      add\n        /* \"#utility.yul\":7718:7765   */\n      mstore\n        /* \"#utility.yul\":7782:7913   */\n      tag_197\n        /* \"#utility.yul\":7908:7912   */\n      dup2\n        /* \"#utility.yul\":7782:7913   */\n      tag_112\n      jump\t// in\n    tag_197:\n        /* \"#utility.yul\":7774:7913   */\n      swap1\n      pop\n        /* \"#utility.yul\":7501:7920   */\n      swap2\n      swap1\n      pop\n      jump\t// out\n        /* \"#utility.yul\":7926:8106   */\n    tag_50:\n        /* \"#utility.yul\":7974:8051   */\n      0x4e487b7100000000000000000000000000000000000000000000000000000000\n        /* \"#utility.yul\":7971:7972   */\n      0x00\n        /* \"#utility.yul\":7964:8052   */\n      mstore\n        /* \"#utility.yul\":8071:8075   */\n      0x32\n        /* \"#utility.yul\":8068:8069   */\n      0x04\n        /* \"#utility.yul\":8061:8076   */\n      mstore\n        /* \"#utility.yul\":8095:8099   */\n      0x24\n        /* \"#utility.yul\":8092:8093   */\n      0x00\n        /* \"#utility.yul\":8085:8100   */\n      revert\n        /* \"#utility.yul\":8112:8189   */\n    tag_113:\n        /* \"#utility.yul\":8149:8156   */\n      0x00\n        /* \"#utility.yul\":8178:8183   */\n      dup2\n        /* \"#utility.yul\":8167:8183   */\n      swap1\n      pop\n        /* \"#utility.yul\":8112:8189   */\n      swap2\n      swap1\n      pop\n      jump\t// out\n        /* \"#utility.yul\":8195:8313   */\n    tag_114:\n        /* \"#utility.yul\":8282:8306   */\n      tag_201\n        /* \"#utility.yul\":8300:8305   */\n      dup2\n        /* \"#utility.yul\":8282:8306   */\n      tag_113\n      jump\t// in\n    tag_201:\n        /* \"#utility.yul\":8277:8280   */\n      dup3\n        /* \"#utility.yul\":8270:8307   */\n      mstore\n        /* \"#utility.yul\":8195:8313   */\n      pop\n      pop\n      jump\t// out\n        /* \"#utility.yul\":8319:8651   */\n    tag_77:\n        /* \"#utility.yul\":8440:8444   */\n      0x00\n        /* \"#utility.yul\":8478:8480   */\n      0x40\n        /* \"#utility.yul\":8467:8476   */\n      dup3\n        /* \"#utility.yul\":8463:8481   */\n      add\n        /* \"#utility.yul\":8455:8481   */\n      swap1\n      pop\n        /* \"#utility.yul\":8491:8562   */\n      tag_203\n        /* \"#utility.yul\":8559:8560   */\n      0x00\n        /* \"#utility.yul\":8548:8557   */\n      dup4\n        /* \"#utility.yul\":8544:8561   */\n      add\n        /* \"#utility.yul\":8535:8541   */\n      dup6\n        /* \"#utility.yul\":8491:8562   */\n      tag_100\n      jump\t// in\n    tag_203:\n        /* \"#utility.yul\":8572:8644   */\n      tag_204\n        /* \"#utility.yul\":8640:8642   */\n      0x20\n        /* \"#utility.yul\":8629:8638   */\n      dup4\n        /* \"#utility.yul\":8625:8643   */\n      add\n        /* \"#utility.yul\":8616:8622   */\n      dup5\n        /* \"#utility.yul\":8572:8644   */\n      tag_114\n      jump\t// in\n    tag_204:\n        /* \"#utility.yul\":8319:8651   */\n      swap4\n      swap3\n      pop\n      pop\n      pop\n      jump\t// out\n\n    auxdata: 0xa2646970667358221220e8e30c592e62dc4fb24f225785c2a9f2c1f0624034666595ffd19cbf92208cc464736f6c634300081a0033\n}\n",
				"bytecode": {
					"linkReferences": {},
					"object": "608060405234801561000f575f80fd5b50604051610dd9380380610dd983398181016040528101906100319190610296565b335f73ffffffffffffffffffffffffffffffffffffffff168173ffffffffffffffffffffffffffffffffffffffff16036100a2575f6040517f1e4fbdf700000000000000000000000000000000000000000000000000000000815260040161009991906102d0565b60405180910390fd5b6100b18161016660201b60201c565b505f73ffffffffffffffffffffffffffffffffffffffff168173ffffffffffffffffffffffffffffffffffffffff1603610120576040517f08c379a000000000000000000000000000000000000000000000000000000000815260040161011790610343565b60405180910390fd5b8060015f6101000a81548173ffffffffffffffffffffffffffffffffffffffff021916908373ffffffffffffffffffffffffffffffffffffffff16021790555050610361565b5f805f9054906101000a900473ffffffffffffffffffffffffffffffffffffffff169050815f806101000a81548173ffffffffffffffffffffffffffffffffffffffff021916908373ffffffffffffffffffffffffffffffffffffffff1602179055508173ffffffffffffffffffffffffffffffffffffffff168173ffffffffffffffffffffffffffffffffffffffff167f8be0079c531659141344cd1fd0a4f28419497f9722a3daafe3b4186f6b6457e060405160405180910390a35050565b5f80fd5b5f73ffffffffffffffffffffffffffffffffffffffff82169050919050565b5f6102548261022b565b9050919050565b5f6102658261024a565b9050919050565b6102758161025b565b811461027f575f80fd5b50565b5f815190506102908161026c565b92915050565b5f602082840312156102ab576102aa610227565b5b5f6102b884828501610282565b91505092915050565b6102ca8161024a565b82525050565b5f6020820190506102e35f8301846102c1565b92915050565b5f82825260208201905092915050565b7f546f6b656e20616464726573732063616e6e6f74206265207a65726f2e0000005f82015250565b5f61032d601d836102e9565b9150610338826102f9565b602082019050919050565b5f6020820190508181035f83015261035a81610321565b9050919050565b610a6b8061036e5f395ff3fe608060405234801561000f575f80fd5b5060043610610060575f3560e01c8063144fa6d7146100645780636724348214610080578063715018a61461009c5780638da5cb5b146100a6578063f2fde38b146100c4578063fc0c546a146100e0575b5f80fd5b61007e60048036038101906100799190610673565b6100fe565b005b61009a60048036038101906100959190610754565b6101b7565b005b6100a46102b4565b005b6100ae6102c7565b6040516100bb91906107e1565b60405180910390f35b6100de60048036038101906100d99190610824565b6102ee565b005b6100e8610372565b6040516100f591906108aa565b60405180910390f35b610106610397565b5f73ffffffffffffffffffffffffffffffffffffffff168173ffffffffffffffffffffffffffffffffffffffff1603610174576040517f08c379a000000000000000000000000000000000000000000000000000000000815260040161016b9061091d565b60405180910390fd5b8060015f6101000a81548173ffffffffffffffffffffffffffffffffffffffff021916908373ffffffffffffffffffffffffffffffffffffffff16021790555050565b6101bf610397565b818190508484905014610207576040517f08c379a00000000000000000000000000000000000000000000000000000000081526004016101fe906109ab565b60405180910390fd5b5f5b848490508110156102ad576102a085858381811061022a576102296109c9565b5b905060200201602081019061023f9190610824565b848484818110610252576102516109c9565b5b9050602002013560015f9054906101000a900473ffffffffffffffffffffffffffffffffffffffff1673ffffffffffffffffffffffffffffffffffffffff1661041e9092919063ffffffff16565b8080600101915050610209565b5050505050565b6102bc610397565b6102c55f61049d565b565b5f805f9054906101000a900473ffffffffffffffffffffffffffffffffffffffff16905090565b6102f6610397565b5f73ffffffffffffffffffffffffffffffffffffffff168173ffffffffffffffffffffffffffffffffffffffff1603610366575f6040517f1e4fbdf700000000000000000000000000000000000000000000000000000000815260040161035d91906107e1565b60405180910390fd5b61036f8161049d565b50565b60015f9054906101000a900473ffffffffffffffffffffffffffffffffffffffff1681565b61039f61055e565b73ffffffffffffffffffffffffffffffffffffffff166103bd6102c7565b73ffffffffffffffffffffffffffffffffffffffff161461041c576103e061055e565b6040517f118cdaa700000000000000000000000000000000000000000000000000000000815260040161041391906107e1565b60405180910390fd5b565b610498838473ffffffffffffffffffffffffffffffffffffffff1663a9059cbb8585604051602401610451929190610a0e565b604051602081830303815290604052915060e01b6020820180517bffffffffffffffffffffffffffffffffffffffffffffffffffffffff8381831617835250505050610565565b505050565b5f805f9054906101000a900473ffffffffffffffffffffffffffffffffffffffff169050815f806101000a81548173ffffffffffffffffffffffffffffffffffffffff021916908373ffffffffffffffffffffffffffffffffffffffff1602179055508173ffffffffffffffffffffffffffffffffffffffff168173ffffffffffffffffffffffffffffffffffffffff167f8be0079c531659141344cd1fd0a4f28419497f9722a3daafe3b4186f6b6457e060405160405180910390a35050565b5f33905090565b5f8060205f8451602086015f885af180610584576040513d5f823e3d81fd5b3d92505f519150505f821461059d5760018114156105b8565b5f8473ffffffffffffffffffffffffffffffffffffffff163b145b156105fa57836040517f5274afe70000000000000000000000000000000000000000000000000000000081526004016105f191906107e1565b60405180910390fd5b50505050565b5f80fd5b5f80fd5b5f73ffffffffffffffffffffffffffffffffffffffff82169050919050565b5f61063182610608565b9050919050565b5f61064282610627565b9050919050565b61065281610638565b811461065c575f80fd5b50565b5f8135905061066d81610649565b92915050565b5f6020828403121561068857610687610600565b5b5f6106958482850161065f565b91505092915050565b5f80fd5b5f80fd5b5f80fd5b5f8083601f8401126106bf576106be61069e565b5b8235905067ffffffffffffffff8111156106dc576106db6106a2565b5b6020830191508360208202830111156106f8576106f76106a6565b5b9250929050565b5f8083601f8401126107145761071361069e565b5b8235905067ffffffffffffffff811115610731576107306106a2565b5b60208301915083602082028301111561074d5761074c6106a6565b5b9250929050565b5f805f806040858703121561076c5761076b610600565b5b5f85013567ffffffffffffffff81111561078957610788610604565b5b610795878288016106aa565b9450945050602085013567ffffffffffffffff8111156107b8576107b7610604565b5b6107c4878288016106ff565b925092505092959194509250565b6107db81610627565b82525050565b5f6020820190506107f45f8301846107d2565b92915050565b61080381610627565b811461080d575f80fd5b50565b5f8135905061081e816107fa565b92915050565b5f6020828403121561083957610838610600565b5b5f61084684828501610810565b91505092915050565b5f819050919050565b5f61087261086d61086884610608565b61084f565b610608565b9050919050565b5f61088382610858565b9050919050565b5f61089482610879565b9050919050565b6108a48161088a565b82525050565b5f6020820190506108bd5f83018461089b565b92915050565b5f82825260208201905092915050565b7f546f6b656e20616464726573732063616e6e6f74206265207a65726f2e0000005f82015250565b5f610907601d836108c3565b9150610912826108d3565b602082019050919050565b5f6020820190508181035f830152610934816108fb565b9050919050565b7f526563697069656e747320616e6420616d6f756e7473206c656e677468206d695f8201527f736d617463682e00000000000000000000000000000000000000000000000000602082015250565b5f6109956027836108c3565b91506109a08261093b565b604082019050919050565b5f6020820190508181035f8301526109c281610989565b9050919050565b7f4e487b71000000000000000000000000000000000000000000000000000000005f52603260045260245ffd5b5f819050919050565b610a08816109f6565b82525050565b5f604082019050610a215f8301856107d2565b610a2e60208301846109ff565b939250505056fea2646970667358221220e8e30c592e62dc4fb24f225785c2a9f2c1f0624034666595ffd19cbf92208cc464736f6c634300081a0033",
					"opcodes": "PUSH1 0x80 PUSH1 0x40 MSTORE CALLVALUE DUP1 ISZERO PUSH2 0xF JUMPI PUSH0 DUP1 REVERT JUMPDEST POP PUSH1 0x40 MLOAD PUSH2 0xDD9 CODESIZE SUB DUP1 PUSH2 0xDD9 DUP4 CODECOPY DUP2 DUP2 ADD PUSH1 0x40 MSTORE DUP2 ADD SWAP1 PUSH2 0x31 SWAP2 SWAP1 PUSH2 0x296 JUMP JUMPDEST CALLER PUSH0 PUSH20 0xFFFFFFFFFFFFFFFFFFFFFFFFFFFFFFFFFFFFFFFF AND DUP2 PUSH20 0xFFFFFFFFFFFFFFFFFFFFFFFFFFFFFFFFFFFFFFFF AND SUB PUSH2 0xA2 JUMPI PUSH0 PUSH1 0x40 MLOAD PUSH32 0x1E4FBDF700000000000000000000000000000000000000000000000000000000 DUP2 MSTORE PUSH1 0x4 ADD PUSH2 0x99 SWAP2 SWAP1 PUSH2 0x2D0 JUMP JUMPDEST PUSH1 0x40 MLOAD DUP1 SWAP2 SUB SWAP1 REVERT JUMPDEST PUSH2 0xB1 DUP2 PUSH2 0x166 PUSH1 0x20 SHL PUSH1 0x20 SHR JUMP JUMPDEST POP PUSH0 PUSH20 0xFFFFFFFFFFFFFFFFFFFFFFFFFFFFFFFFFFFFFFFF AND DUP2 PUSH20 0xFFFFFFFFFFFFFFFFFFFFFFFFFFFFFFFFFFFFFFFF AND SUB PUSH2 0x120 JUMPI PUSH1 0x40 MLOAD PUSH32 0x8C379A000000000000000000000000000000000000000000000000000000000 DUP2 MSTORE PUSH1 0x4 ADD PUSH2 0x117 SWAP1 PUSH2 0x343 JUMP JUMPDEST PUSH1 0x40 MLOAD DUP1 SWAP2 SUB SWAP1 REVERT JUMPDEST DUP1 PUSH1 0x1 PUSH0 PUSH2 0x100 EXP DUP2 SLOAD DUP2 PUSH20 0xFFFFFFFFFFFFFFFFFFFFFFFFFFFFFFFFFFFFFFFF MUL NOT AND SWAP1 DUP4 PUSH20 0xFFFFFFFFFFFFFFFFFFFFFFFFFFFFFFFFFFFFFFFF AND MUL OR SWAP1 SSTORE POP POP PUSH2 0x361 JUMP JUMPDEST PUSH0 DUP1 PUSH0 SWAP1 SLOAD SWAP1 PUSH2 0x100 EXP SWAP1 DIV PUSH20 0xFFFFFFFFFFFFFFFFFFFFFFFFFFFFFFFFFFFFFFFF AND SWAP1 POP DUP2 PUSH0 DUP1 PUSH2 0x100 EXP DUP2 SLOAD DUP2 PUSH20 0xFFFFFFFFFFFFFFFFFFFFFFFFFFFFFFFFFFFFFFFF MUL NOT AND SWAP1 DUP4 PUSH20 0xFFFFFFFFFFFFFFFFFFFFFFFFFFFFFFFFFFFFFFFF AND MUL OR SWAP1 SSTORE POP DUP2 PUSH20 0xFFFFFFFFFFFFFFFFFFFFFFFFFFFFFFFFFFFFFFFF AND DUP2 PUSH20 0xFFFFFFFFFFFFFFFFFFFFFFFFFFFFFFFFFFFFFFFF AND PUSH32 0x8BE0079C531659141344CD1FD0A4F28419497F9722A3DAAFE3B4186F6B6457E0 PUSH1 0x40 MLOAD PUSH1 0x40 MLOAD DUP1 SWAP2 SUB SWAP1 LOG3 POP POP JUMP JUMPDEST PUSH0 DUP1 REVERT JUMPDEST PUSH0 PUSH20 0xFFFFFFFFFFFFFFFFFFFFFFFFFFFFFFFFFFFFFFFF DUP3 AND SWAP1 POP SWAP2 SWAP1 POP JUMP JUMPDEST PUSH0 PUSH2 0x254 DUP3 PUSH2 0x22B JUMP JUMPDEST SWAP1 POP SWAP2 SWAP1 POP JUMP JUMPDEST PUSH0 PUSH2 0x265 DUP3 PUSH2 0x24A JUMP JUMPDEST SWAP1 POP SWAP2 SWAP1 POP JUMP JUMPDEST PUSH2 0x275 DUP2 PUSH2 0x25B JUMP JUMPDEST DUP2 EQ PUSH2 0x27F JUMPI PUSH0 DUP1 REVERT JUMPDEST POP JUMP JUMPDEST PUSH0 DUP2 MLOAD SWAP1 POP PUSH2 0x290 DUP2 PUSH2 0x26C JUMP JUMPDEST SWAP3 SWAP2 POP POP JUMP JUMPDEST PUSH0 PUSH1 0x20 DUP3 DUP5 SUB SLT ISZERO PUSH2 0x2AB JUMPI PUSH2 0x2AA PUSH2 0x227 JUMP JUMPDEST JUMPDEST PUSH0 PUSH2 0x2B8 DUP5 DUP3 DUP6 ADD PUSH2 0x282 JUMP JUMPDEST SWAP2 POP POP SWAP3 SWAP2 POP POP JUMP JUMPDEST PUSH2 0x2CA DUP2 PUSH2 0x24A JUMP JUMPDEST DUP3 MSTORE POP POP JUMP JUMPDEST PUSH0 PUSH1 0x20 DUP3 ADD SWAP1 POP PUSH2 0x2E3 PUSH0 DUP4 ADD DUP5 PUSH2 0x2C1 JUMP JUMPDEST SWAP3 SWAP2 POP POP JUMP JUMPDEST PUSH0 DUP3 DUP3 MSTORE PUSH1 0x20 DUP3 ADD SWAP1 POP SWAP3 SWAP2 POP POP JUMP JUMPDEST PUSH32 0x546F6B656E20616464726573732063616E6E6F74206265207A65726F2E000000 PUSH0 DUP3 ADD MSTORE POP JUMP JUMPDEST PUSH0 PUSH2 0x32D PUSH1 0x1D DUP4 PUSH2 0x2E9 JUMP JUMPDEST SWAP2 POP PUSH2 0x338 DUP3 PUSH2 0x2F9 JUMP JUMPDEST PUSH1 0x20 DUP3 ADD SWAP1 POP SWAP2 SWAP1 POP JUMP JUMPDEST PUSH0 PUSH1 0x20 DUP3 ADD SWAP1 POP DUP2 DUP2 SUB PUSH0 DUP4 ADD MSTORE PUSH2 0x35A DUP2 PUSH2 0x321 JUMP JUMPDEST SWAP1 POP SWAP2 SWAP1 POP JUMP JUMPDEST PUSH2 0xA6B DUP1 PUSH2 0x36E PUSH0 CODECOPY PUSH0 RETURN INVALID PUSH1 0x80 PUSH1 0x40 MSTORE CALLVALUE DUP1 ISZERO PUSH2 0xF JUMPI PUSH0 DUP1 REVERT JUMPDEST POP PUSH1 0x4 CALLDATASIZE LT PUSH2 0x60 JUMPI PUSH0 CALLDATALOAD PUSH1 0xE0 SHR DUP1 PUSH4 0x144FA6D7 EQ PUSH2 0x64 JUMPI DUP1 PUSH4 0x67243482 EQ PUSH2 0x80 JUMPI DUP1 PUSH4 0x715018A6 EQ PUSH2 0x9C JUMPI DUP1 PUSH4 0x8DA5CB5B EQ PUSH2 0xA6 JUMPI DUP1 PUSH4 0xF2FDE38B EQ PUSH2 0xC4 JUMPI DUP1 PUSH4 0xFC0C546A EQ PUSH2 0xE0 JUMPI JUMPDEST PUSH0 DUP1 REVERT JUMPDEST PUSH2 0x7E PUSH1 0x4 DUP1 CALLDATASIZE SUB DUP2 ADD SWAP1 PUSH2 0x79 SWAP2 SWAP1 PUSH2 0x673 JUMP JUMPDEST PUSH2 0xFE JUMP JUMPDEST STOP JUMPDEST PUSH2 0x9A PUSH1 0x4 DUP1 CALLDATASIZE SUB DUP2 ADD SWAP1 PUSH2 0x95 SWAP2 SWAP1 PUSH2 0x754 JUMP JUMPDEST PUSH2 0x1B7 JUMP JUMPDEST STOP JUMPDEST PUSH2 0xA4 PUSH2 0x2B4 JUMP JUMPDEST STOP JUMPDEST PUSH2 0xAE PUSH2 0x2C7 JUMP JUMPDEST PUSH1 0x40 MLOAD PUSH2 0xBB SWAP2 SWAP1 PUSH2 0x7E1 JUMP JUMPDEST PUSH1 0x40 MLOAD DUP1 SWAP2 SUB SWAP1 RETURN JUMPDEST PUSH2 0xDE PUSH1 0x4 DUP1 CALLDATASIZE SUB DUP2 ADD SWAP1 PUSH2 0xD9 SWAP2 SWAP1 PUSH2 0x824 JUMP JUMPDEST PUSH2 0x2EE JUMP JUMPDEST STOP JUMPDEST PUSH2 0xE8 PUSH2 0x372 JUMP JUMPDEST PUSH1 0x40 MLOAD PUSH2 0xF5 SWAP2 SWAP1 PUSH2 0x8AA JUMP JUMPDEST PUSH1 0x40 MLOAD DUP1 SWAP2 SUB SWAP1 RETURN JUMPDEST PUSH2 0x106 PUSH2 0x397 JUMP JUMPDEST PUSH0 PUSH20 0xFFFFFFFFFFFFFFFFFFFFFFFFFFFFFFFFFFFFFFFF AND DUP2 PUSH20 0xFFFFFFFFFFFFFFFFFFFFFFFFFFFFFFFFFFFFFFFF AND SUB PUSH2 0x174 JUMPI PUSH1 0x40 MLOAD PUSH32 0x8C379A000000000000000000000000000000000000000000000000000000000 DUP2 MSTORE PUSH1 0x4 ADD PUSH2 0x16B SWAP1 PUSH2 0x91D JUMP JUMPDEST PUSH1 0x40 MLOAD DUP1 SWAP2 SUB SWAP1 REVERT JUMPDEST DUP1 PUSH1 0x1 PUSH0 PUSH2 0x100 EXP DUP2 SLOAD DUP2 PUSH20 0xFFFFFFFFFFFFFFFFFFFFFFFFFFFFFFFFFFFFFFFF MUL NOT AND SWAP1 DUP4 PUSH20 0xFFFFFFFFFFFFFFFFFFFFFFFFFFFFFFFFFFFFFFFF AND MUL OR SWAP1 SSTORE POP POP JUMP JUMPDEST PUSH2 0x1BF PUSH2 0x397 JUMP JUMPDEST DUP2 DUP2 SWAP1 POP DUP5 DUP5 SWAP1 POP EQ PUSH2 0x207 JUMPI PUSH1 0x40 MLOAD PUSH32 0x8C379A000000000000000000000000000000000000000000000000000000000 DUP2 MSTORE PUSH1 0x4 ADD PUSH2 0x1FE SWAP1 PUSH2 0x9AB JUMP JUMPDEST PUSH1 0x40 MLOAD DUP1 SWAP2 SUB SWAP1 REVERT JUMPDEST PUSH0 JUMPDEST DUP5 DUP5 SWAP1 POP DUP2 LT ISZERO PUSH2 0x2AD JUMPI PUSH2 0x2A0 DUP6 DUP6 DUP4 DUP2 DUP2 LT PUSH2 0x22A JUMPI PUSH2 0x229 PUSH2 0x9C9 JUMP JUMPDEST JUMPDEST SWAP1 POP PUSH1 0x20 MUL ADD PUSH1 0x20 DUP2 ADD SWAP1 PUSH2 0x23F SWAP2 SWAP1 PUSH2 0x824 JUMP JUMPDEST DUP5 DUP5 DUP5 DUP2 DUP2 LT PUSH2 0x252 JUMPI PUSH2 0x251 PUSH2 0x9C9 JUMP JUMPDEST JUMPDEST SWAP1 POP PUSH1 0x20 MUL ADD CALLDATALOAD PUSH1 0x1 PUSH0 SWAP1 SLOAD SWAP1 PUSH2 0x100 EXP SWAP1 DIV PUSH20 0xFFFFFFFFFFFFFFFFFFFFFFFFFFFFFFFFFFFFFFFF AND PUSH20 0xFFFFFFFFFFFFFFFFFFFFFFFFFFFFFFFFFFFFFFFF AND PUSH2 0x41E SWAP1 SWAP3 SWAP2 SWAP1 PUSH4 0xFFFFFFFF AND JUMP JUMPDEST DUP1 DUP1 PUSH1 0x1 ADD SWAP2 POP POP PUSH2 0x209 JUMP JUMPDEST POP POP POP POP POP JUMP JUMPDEST PUSH2 0x2BC PUSH2 0x397 JUMP JUMPDEST PUSH2 0x2C5 PUSH0 PUSH2 0x49D JUMP JUMPDEST JUMP JUMPDEST PUSH0 DUP1 PUSH0 SWAP1 SLOAD SWAP1 PUSH2 0x100 EXP SWAP1 DIV PUSH20 0xFFFFFFFFFFFFFFFFFFFFFFFFFFFFFFFFFFFFFFFF AND SWAP1 POP SWAP1 JUMP JUMPDEST PUSH2 0x2F6 PUSH2 0x397 JUMP JUMPDEST PUSH0 PUSH20 0xFFFFFFFFFFFFFFFFFFFFFFFFFFFFFFFFFFFFFFFF AND DUP2 PUSH20 0xFFFFFFFFFFFFFFFFFFFFFFFFFFFFFFFFFFFFFFFF AND SUB PUSH2 0x366 JUMPI PUSH0 PUSH1 0x40 MLOAD PUSH32 0x1E4FBDF700000000000000000000000000000000000000000000000000000000 DUP2 MSTORE PUSH1 0x4 ADD PUSH2 0x35D SWAP2 SWAP1 PUSH2 0x7E1 JUMP JUMPDEST PUSH1 0x40 MLOAD DUP1 SWAP2 SUB SWAP1 REVERT JUMPDEST PUSH2 0x36F DUP2 PUSH2 0x49D JUMP JUMPDEST POP JUMP JUMPDEST PUSH1 0x1 PUSH0 SWAP1 SLOAD SWAP1 PUSH2 0x100 EXP SWAP1 DIV PUSH20 0xFFFFFFFFFFFFFFFFFFFFFFFFFFFFFFFFFFFFFFFF AND DUP2 JUMP JUMPDEST PUSH2 0x39F PUSH2 0x55E JUMP JUMPDEST PUSH20 0xFFFFFFFFFFFFFFFFFFFFFFFFFFFFFFFFFFFFFFFF AND PUSH2 0x3BD PUSH2 0x2C7 JUMP JUMPDEST PUSH20 0xFFFFFFFFFFFFFFFFFFFFFFFFFFFFFFFFFFFFFFFF AND EQ PUSH2 0x41C JUMPI PUSH2 0x3E0 PUSH2 0x55E JUMP JUMPDEST PUSH1 0x40 MLOAD PUSH32 0x118CDAA700000000000000000000000000000000000000000000000000000000 DUP2 MSTORE PUSH1 0x4 ADD PUSH2 0x413 SWAP2 SWAP1 PUSH2 0x7E1 JUMP JUMPDEST PUSH1 0x40 MLOAD DUP1 SWAP2 SUB SWAP1 REVERT JUMPDEST JUMP JUMPDEST PUSH2 0x498 DUP4 DUP5 PUSH20 0xFFFFFFFFFFFFFFFFFFFFFFFFFFFFFFFFFFFFFFFF AND PUSH4 0xA9059CBB DUP6 DUP6 PUSH1 0x40 MLOAD PUSH1 0x24 ADD PUSH2 0x451 SWAP3 SWAP2 SWAP1 PUSH2 0xA0E JUMP JUMPDEST PUSH1 0x40 MLOAD PUSH1 0x20 DUP2 DUP4 SUB SUB DUP2 MSTORE SWAP1 PUSH1 0x40 MSTORE SWAP2 POP PUSH1 0xE0 SHL PUSH1 0x20 DUP3 ADD DUP1 MLOAD PUSH28 0xFFFFFFFFFFFFFFFFFFFFFFFFFFFFFFFFFFFFFFFFFFFFFFFFFFFFFFFF DUP4 DUP2 DUP4 AND OR DUP4 MSTORE POP POP POP POP PUSH2 0x565 JUMP JUMPDEST POP POP POP JUMP JUMPDEST PUSH0 DUP1 PUSH0 SWAP1 SLOAD SWAP1 PUSH2 0x100 EXP SWAP1 DIV PUSH20 0xFFFFFFFFFFFFFFFFFFFFFFFFFFFFFFFFFFFFFFFF AND SWAP1 POP DUP2 PUSH0 DUP1 PUSH2 0x100 EXP DUP2 SLOAD DUP2 PUSH20 0xFFFFFFFFFFFFFFFFFFFFFFFFFFFFFFFFFFFFFFFF MUL NOT AND SWAP1 DUP4 PUSH20 0xFFFFFFFFFFFFFFFFFFFFFFFFFFFFFFFFFFFFFFFF AND MUL OR SWAP1 SSTORE POP DUP2 PUSH20 0xFFFFFFFFFFFFFFFFFFFFFFFFFFFFFFFFFFFFFFFF AND DUP2 PUSH20 0xFFFFFFFFFFFFFFFFFFFFFFFFFFFFFFFFFFFFFFFF AND PUSH32 0x8BE0079C531659141344CD1FD0A4F28419497F9722A3DAAFE3B4186F6B6457E0 PUSH1 0x40 MLOAD PUSH1 0x40 MLOAD DUP1 SWAP2 SUB SWAP1 LOG3 POP POP JUMP JUMPDEST PUSH0 CALLER SWAP1 POP SWAP1 JUMP JUMPDEST PUSH0 DUP1 PUSH1 0x20 PUSH0 DUP5 MLOAD PUSH1 0x20 DUP7 ADD PUSH0 DUP9 GAS CALL DUP1 PUSH2 0x584 JUMPI PUSH1 0x40 MLOAD RETURNDATASIZE PUSH0 DUP3 RETURNDATACOPY RETURNDATASIZE DUP2 REVERT JUMPDEST RETURNDATASIZE SWAP3 POP PUSH0 MLOAD SWAP2 POP POP PUSH0 DUP3 EQ PUSH2 0x59D JUMPI PUSH1 0x1 DUP2 EQ ISZERO PUSH2 0x5B8 JUMP JUMPDEST PUSH0 DUP5 PUSH20 0xFFFFFFFFFFFFFFFFFFFFFFFFFFFFFFFFFFFFFFFF AND EXTCODESIZE EQ JUMPDEST ISZERO PUSH2 0x5FA JUMPI DUP4 PUSH1 0x40 MLOAD PUSH32 0x5274AFE700000000000000000000000000000000000000000000000000000000 DUP2 MSTORE PUSH1 0x4 ADD PUSH2 0x5F1 SWAP2 SWAP1 PUSH2 0x7E1 JUMP JUMPDEST PUSH1 0x40 MLOAD DUP1 SWAP2 SUB SWAP1 REVERT JUMPDEST POP POP POP POP JUMP JUMPDEST PUSH0 DUP1 REVERT JUMPDEST PUSH0 DUP1 REVERT JUMPDEST PUSH0 PUSH20 0xFFFFFFFFFFFFFFFFFFFFFFFFFFFFFFFFFFFFFFFF DUP3 AND SWAP1 POP SWAP2 SWAP1 POP JUMP JUMPDEST PUSH0 PUSH2 0x631 DUP3 PUSH2 0x608 JUMP JUMPDEST SWAP1 POP SWAP2 SWAP1 POP JUMP JUMPDEST PUSH0 PUSH2 0x642 DUP3 PUSH2 0x627 JUMP JUMPDEST SWAP1 POP SWAP2 SWAP1 POP JUMP JUMPDEST PUSH2 0x652 DUP2 PUSH2 0x638 JUMP JUMPDEST DUP2 EQ PUSH2 0x65C JUMPI PUSH0 DUP1 REVERT JUMPDEST POP JUMP JUMPDEST PUSH0 DUP2 CALLDATALOAD SWAP1 POP PUSH2 0x66D DUP2 PUSH2 0x649 JUMP JUMPDEST SWAP3 SWAP2 POP POP JUMP JUMPDEST PUSH0 PUSH1 0x20 DUP3 DUP5 SUB SLT ISZERO PUSH2 0x688 JUMPI PUSH2 0x687 PUSH2 0x600 JUMP JUMPDEST JUMPDEST PUSH0 PUSH2 0x695 DUP5 DUP3 DUP6 ADD PUSH2 0x65F JUMP JUMPDEST SWAP2 POP POP SWAP3 SWAP2 POP POP JUMP JUMPDEST PUSH0 DUP1 REVERT JUMPDEST PUSH0 DUP1 REVERT JUMPDEST PUSH0 DUP1 REVERT JUMPDEST PUSH0 DUP1 DUP4 PUSH1 0x1F DUP5 ADD SLT PUSH2 0x6BF JUMPI PUSH2 0x6BE PUSH2 0x69E JUMP JUMPDEST JUMPDEST DUP3 CALLDATALOAD SWAP1 POP PUSH8 0xFFFFFFFFFFFFFFFF DUP2 GT ISZERO PUSH2 0x6DC JUMPI PUSH2 0x6DB PUSH2 0x6A2 JUMP JUMPDEST JUMPDEST PUSH1 0x20 DUP4 ADD SWAP2 POP DUP4 PUSH1 0x20 DUP3 MUL DUP4 ADD GT ISZERO PUSH2 0x6F8 JUMPI PUSH2 0x6F7 PUSH2 0x6A6 JUMP JUMPDEST JUMPDEST SWAP3 POP SWAP3 SWAP1 POP JUMP JUMPDEST PUSH0 DUP1 DUP4 PUSH1 0x1F DUP5 ADD SLT PUSH2 0x714 JUMPI PUSH2 0x713 PUSH2 0x69E JUMP JUMPDEST JUMPDEST DUP3 CALLDATALOAD SWAP1 POP PUSH8 0xFFFFFFFFFFFFFFFF DUP2 GT ISZERO PUSH2 0x731 JUMPI PUSH2 0x730 PUSH2 0x6A2 JUMP JUMPDEST JUMPDEST PUSH1 0x20 DUP4 ADD SWAP2 POP DUP4 PUSH1 0x20 DUP3 MUL DUP4 ADD GT ISZERO PUSH2 0x74D JUMPI PUSH2 0x74C PUSH2 0x6A6 JUMP JUMPDEST JUMPDEST SWAP3 POP SWAP3 SWAP1 POP JUMP JUMPDEST PUSH0 DUP1 PUSH0 DUP1 PUSH1 0x40 DUP6 DUP8 SUB SLT ISZERO PUSH2 0x76C JUMPI PUSH2 0x76B PUSH2 0x600 JUMP JUMPDEST JUMPDEST PUSH0 DUP6 ADD CALLDATALOAD PUSH8 0xFFFFFFFFFFFFFFFF DUP2 GT ISZERO PUSH2 0x789 JUMPI PUSH2 0x788 PUSH2 0x604 JUMP JUMPDEST JUMPDEST PUSH2 0x795 DUP8 DUP3 DUP9 ADD PUSH2 0x6AA JUMP JUMPDEST SWAP5 POP SWAP5 POP POP PUSH1 0x20 DUP6 ADD CALLDATALOAD PUSH8 0xFFFFFFFFFFFFFFFF DUP2 GT ISZERO PUSH2 0x7B8 JUMPI PUSH2 0x7B7 PUSH2 0x604 JUMP JUMPDEST JUMPDEST PUSH2 0x7C4 DUP8 DUP3 DUP9 ADD PUSH2 0x6FF JUMP JUMPDEST SWAP3 POP SWAP3 POP POP SWAP3 SWAP6 SWAP2 SWAP5 POP SWAP3 POP JUMP JUMPDEST PUSH2 0x7DB DUP2 PUSH2 0x627 JUMP JUMPDEST DUP3 MSTORE POP POP JUMP JUMPDEST PUSH0 PUSH1 0x20 DUP3 ADD SWAP1 POP PUSH2 0x7F4 PUSH0 DUP4 ADD DUP5 PUSH2 0x7D2 JUMP JUMPDEST SWAP3 SWAP2 POP POP JUMP JUMPDEST PUSH2 0x803 DUP2 PUSH2 0x627 JUMP JUMPDEST DUP2 EQ PUSH2 0x80D JUMPI PUSH0 DUP1 REVERT JUMPDEST POP JUMP JUMPDEST PUSH0 DUP2 CALLDATALOAD SWAP1 POP PUSH2 0x81E DUP2 PUSH2 0x7FA JUMP JUMPDEST SWAP3 SWAP2 POP POP JUMP JUMPDEST PUSH0 PUSH1 0x20 DUP3 DUP5 SUB SLT ISZERO PUSH2 0x839 JUMPI PUSH2 0x838 PUSH2 0x600 JUMP JUMPDEST JUMPDEST PUSH0 PUSH2 0x846 DUP5 DUP3 DUP6 ADD PUSH2 0x810 JUMP JUMPDEST SWAP2 POP POP SWAP3 SWAP2 POP POP JUMP JUMPDEST PUSH0 DUP2 SWAP1 POP SWAP2 SWAP1 POP JUMP JUMPDEST PUSH0 PUSH2 0x872 PUSH2 0x86D PUSH2 0x868 DUP5 PUSH2 0x608 JUMP JUMPDEST PUSH2 0x84F JUMP JUMPDEST PUSH2 0x608 JUMP JUMPDEST SWAP1 POP SWAP2 SWAP1 POP JUMP JUMPDEST PUSH0 PUSH2 0x883 DUP3 PUSH2 0x858 JUMP JUMPDEST SWAP1 POP SWAP2 SWAP1 POP JUMP JUMPDEST PUSH0 PUSH2 0x894 DUP3 PUSH2 0x879 JUMP JUMPDEST SWAP1 POP SWAP2 SWAP1 POP JUMP JUMPDEST PUSH2 0x8A4 DUP2 PUSH2 0x88A JUMP JUMPDEST DUP3 MSTORE POP POP JUMP JUMPDEST PUSH0 PUSH1 0x20 DUP3 ADD SWAP1 POP PUSH2 0x8BD PUSH0 DUP4 ADD DUP5 PUSH2 0x89B JUMP JUMPDEST SWAP3 SWAP2 POP POP JUMP JUMPDEST PUSH0 DUP3 DUP3 MSTORE PUSH1 0x20 DUP3 ADD SWAP1 POP SWAP3 SWAP2 POP POP JUMP JUMPDEST PUSH32 0x546F6B656E20616464726573732063616E6E6F74206265207A65726F2E000000 PUSH0 DUP3 ADD MSTORE POP JUMP JUMPDEST PUSH0 PUSH2 0x907 PUSH1 0x1D DUP4 PUSH2 0x8C3 JUMP JUMPDEST SWAP2 POP PUSH2 0x912 DUP3 PUSH2 0x8D3 JUMP JUMPDEST PUSH1 0x20 DUP3 ADD SWAP1 POP SWAP2 SWAP1 POP JUMP JUMPDEST PUSH0 PUSH1 0x20 DUP3 ADD SWAP1 POP DUP2 DUP2 SUB PUSH0 DUP4 ADD MSTORE PUSH2 0x934 DUP2 PUSH2 0x8FB JUMP JUMPDEST SWAP1 POP SWAP2 SWAP1 POP JUMP JUMPDEST PUSH32 0x526563697069656E747320616E6420616D6F756E7473206C656E677468206D69 PUSH0 DUP3 ADD MSTORE PUSH32 0x736D617463682E00000000000000000000000000000000000000000000000000 PUSH1 0x20 DUP3 ADD MSTORE POP JUMP JUMPDEST PUSH0 PUSH2 0x995 PUSH1 0x27 DUP4 PUSH2 0x8C3 JUMP JUMPDEST SWAP2 POP PUSH2 0x9A0 DUP3 PUSH2 0x93B JUMP JUMPDEST PUSH1 0x40 DUP3 ADD SWAP1 POP SWAP2 SWAP1 POP JUMP JUMPDEST PUSH0 PUSH1 0x20 DUP3 ADD SWAP1 POP DUP2 DUP2 SUB PUSH0 DUP4 ADD MSTORE PUSH2 0x9C2 DUP2 PUSH2 0x989 JUMP JUMPDEST SWAP1 POP SWAP2 SWAP1 POP JUMP JUMPDEST PUSH32 0x4E487B7100000000000000000000000000000000000000000000000000000000 PUSH0 MSTORE PUSH1 0x32 PUSH1 0x4 MSTORE PUSH1 0x24 PUSH0 REVERT JUMPDEST PUSH0 DUP2 SWAP1 POP SWAP2 SWAP1 POP JUMP JUMPDEST PUSH2 0xA08 DUP2 PUSH2 0x9F6 JUMP JUMPDEST DUP3 MSTORE POP POP JUMP JUMPDEST PUSH0 PUSH1 0x40 DUP3 ADD SWAP1 POP PUSH2 0xA21 PUSH0 DUP4 ADD DUP6 PUSH2 0x7D2 JUMP JUMPDEST PUSH2 0xA2E PUSH1 0x20 DUP4 ADD DUP5 PUSH2 0x9FF JUMP JUMPDEST SWAP4 SWAP3 POP POP POP JUMP INVALID LOG2 PUSH5 0x6970667358 0x22 SLT KECCAK256 0xE8 0xE3 0xC MSIZE 0x2E PUSH3 0xDC4FB2 0x4F 0x22 JUMPI DUP6 0xC2 0xA9 CALLCODE 0xC1 CREATE PUSH3 0x403466 PUSH6 0x95FFD19CBF92 KECCAK256 DUP13 0xC4 PUSH5 0x736F6C6343 STOP ADDMOD BYTE STOP CALLER "
				},
				"gasEstimates": {
					"creation": {
						"codeDepositCost": "533400",
						"executionCost": "infinite",
						"totalCost": "infinite"
					},
					"external": {
						"airdrop(address[],uint256[])": "infinite",
						"owner()": "2559",
						"renounceOwnership()": "infinite",
						"setToken(address)": "infinite",
						"token()": "infinite",
						"transferOwnership(address)": "infinite"
					}
				},
				"methodIdentifiers": {
					"airdrop(address[],uint256[])": "67243482",
					"owner()": "8da5cb5b",
					"renounceOwnership()": "715018a6",
					"setToken(address)": "144fa6d7",
					"token()": "fc0c546a",
					"transferOwnership(address)": "f2fde38b"
				}
			},
			"storageLayout": {
				"storage": [
					{
						"astId": 127,
						"contract": "contracts/WinnerList_Airdrop.sol:AirdropContract",
						"label": "_owner",
						"offset": 0,
						"slot": "0",
						"type": "t_address"
					},
					{
						"astId": 15,
						"contract": "contracts/WinnerList_Airdrop.sol:AirdropContract",
						"label": "token",
						"offset": 0,
						"slot": "1",
						"type": "t_contract(IERC20)434"
					}
				],
				"types": {
					"t_address": {
						"encoding": "inplace",
						"label": "address",
						"numberOfBytes": "20"
					},
					"t_contract(IERC20)434": {
						"encoding": "inplace",
						"label": "contract IERC20",
						"numberOfBytes": "20"
					}
				}
			},
			"userdoc": {
				"kind": "user",
				"methods": {
					"airdrop(address[],uint256[])": {
						"notice": "Admin tarafından belirlenen adreslere airdrop yapar."
					},
					"setToken(address)": {
						"notice": "Token adresini günceller."
					},
					"token()": {
						"notice": "Airdrop yapılacak token adresi"
					}
				},
				"version": 1
			}
		}
	}
}